:020000040800F2
:10C00000BF541276123612FD87216EB96FAA12E75D
:10C01000E9AD9CB09CD3D968655C7D46A046FBDC4D
:10C0200047C8FB8C47E99EFA5E464FA6DC1FCB460D
:10C030007ED1C3C96300620312F1E746DB46312FAC
:10C04000124D8721A6C9633639036FC636B81276FA
:10C0500036DC12F136711276491106BA312F124DC3
:10C0600087214909FABA312F124D872149E285BA51
:10C07000312F124D8721DC7BB3BAF02F124D87216F
:10C080008C1976556EB91212BA1212F130B50B46F0
:10C09000014600202022012409E00D46D5409D42A2
:10C0A00005D31D469540491B254695404019154628
:10C0B000521E002DF1DC30BD70B50024254600284D
:10C0C00001DA01244042002901DA01254942FFF743
:10C0D000DDFFAC4200D04042002C00D0494270BD90
:10C0E00003460B439B0703D009E008C9121F08C091
:10C0F000042AFAD203E00B780370401C491C521E3C
:10C10000F9D27047D2B201E00270401C491EFBD246
:10C1100070470022F6E710B513460A460446194652
:10C12000FFF7F0FF204610BD10B5044605E00B7880
:10C130000370401C002B00D0491C521EF7D2204631
:10C1400010BD421C0178401C0029FBD1801A7047A9
:10C1500003460A780270401C491C002AF9D118468F
:10C1600070470321001D401E037812021A43491E26
:10C17000F9D510467047000070B5121A95B25A1AD8
:10C1800096B233462A46049C00F01CF82C2000F09E
:10C1900057F800F06BF87543230A00202202074984
:10C1A000134304E08A689207FCD5CB60401CA84288
:10C1B000F8D3012002490003886170BD00380040B7
:10C1C00000040050F8B505468018401E87B2C81814
:10C1D000401E86B20C462A2000F032F8280A00F0F1
:10C1E00019F8E8B200F016F8380A00F013F8F8B2BF
:10C1F00000F010F82B2000F023F8200A00F00AF8D5
:10C20000E0B200F007F8300A00F004F8F0B200F0F5
:10C2100001F8F8BD10B50124074B24039C626100AE
:10C22000996106498A689207FCD5087388680006F8
:10C23000FCD49C6110BD0000000400500038004098
:10C2400010B50124074B24039C62610099620649E2
:10C250008A689207FCD5087388680006FCD49C6144
:10C2600010BD0000000400500038004001210348C8
:10C270004903816149108162704700000004005049
:10C28000F0B5054608880C46C005800E7721081ACF
:10C29000860693B0802069460870B60E6F46472127
:10C2A000781C761CFFF735FF2078B8552088324679
:10C2B000010AB819417021680832090C817021689F
:10C2C000090EC17021790171A188090A4171616863
:10C2D000090C81716168090EC1716946204600F040
:10C2E00027F80020820011190B7AAB540B895219E0
:10C2F0001B0A53708B68401C1B0C93708968090ED5
:10C30000D1700428EEDB13B0F0BD00000021016005
:10C31000416005494161054901610349C943C16063
:10C320000249C9438160704776543210FEDCBA98E6
:10C33000FEB5074600910068D100411815463960E6
:10C34000814202D27968491C7960C005840E384662
:10C350001830019016E04020061BAE4200D32E4656
:10C360003819324618300099FFF7BAFE0098A41920
:10C370008019AD1B0090402C04D13846019900F083
:10C380001DFE0024002DE6D1FEBD0000044A054B31
:10C39000916852685940511802684A4002607047DB
:10C3A0009075FF1FFB6080B510B51446012389B25C
:10C3B00080B21A46FFF706FF2C20FFF741FFFFF778
:10C3C00055FF064881688907FCD5210A22021143DE
:10C3D000C160012002490003886110BD003800409F
:10C3E00000040050FFB50B4883B000680F46029070
:10C3F0001D461646042102A8FFF7C8FF0020029C34
:10C40000009001902B46324639460398A04707B06A
:10C41000F0BD000000000020FFB50B4883B00C9D6C
:10C42000006802901E461746042102A8FFF7AEFFDF
:10C430000120029C009033463A46019504990398E6
:10C44000A04707B0F0BD00000000002070B50D4609
:10C4500004001ED0E388A28861882088FFF7B2FE1E
:10C460002C20FFF7EDFEFFF701FFA388E0882C0AE0
:10C47000434300202902074A0C4304E091688907DE
:10C48000FCD5D460401C9842F8D301200249000337
:10C49000886170BD003800400004005070B503464C
:10C4A0005C880020E5041C8B09D59D89DB7D9D42BD
:10C4B00014D9A81AE91A5A08801A604308E05D895D
:10C4C0009A7D95420AD95008081AAB1A604319465A
:10C4D000FFF7F2FD002801DA002002E0844200DAD2
:10C4E000204680B270BD000030B58FB00D460446C6
:10C4F00038220F496846FFF7F3FD6378002268464B
:10C50000D100415C8B4208D1D1000818426829460D
:10C5100020469047002808D003E0521CD2B2072AD8
:10C52000EED32946204602F0AAFA0FB030BD000033
:10C53000E0EA0008FFB583B00D9817460093019319
:10C54000002802D000984008009000261EE00498C1
:10C5500000248025801900B2029010E0E008385CC9
:10C56000284207D003980C4A0019136800B20299B8
:10C570000C9A98476D0800D18025641CE4B200989D
:10C580008442EBD3761C0E98F6B23F18019886428F
:10C59000DDD307B0F0BD000018EB0008F8B50A4D78
:10C5A0000E460746AB6B114608A09847002404E0EE
:10C5B000AA6B395D07A09047641CB442F8DBA96BF5
:10C5C00006A08847F8BD00007000002025733A20BF
:10C5D0000000000025303278000000000A00000052
:10C5E000FFB58DB000241D46164604230BAA214634
:10C5F00001200B9402F03EF9002802D00B988542EE
:10C6000007D3C7482A46836BC6A00B99984711B039
:10C61000F0BD182045430346291D01AA012002F060
:10C6200029F90028F3D0079469460894888808847B
:10C63000C8884884002E04D007AA1146304602F06C
:10C640004CF86846018C80880027814204D16A46F4
:10C65000518CD288914200D00127BD494C604C706A
:10C660000C700A906846C48801A801F08BFF01A8ED
:10C6700001F0D0FF6846007E102802D0082830D094
:10C6800038E10E98234681B20D980A9A80B2FFF7DE
:10C6900099FD2C20FFF7D4FDFFF7E8FD0020AD4DFC
:10C6A000AD4FAB4E0446B9688907FCD54100695AC5
:10C6B0000A0A09020A43FA607168401CA41C8C42F1
:10C6C000F1D370780028DBD102F002F9B06871680C
:10C6D000851C00884018706001A801F09BFF0020B5
:10C6E000E1E7002F0CD10E98234681B20D980A9AEB
:10C6F00080B2FFF767FD2C20FFF7A2FDFFF7B6FD24
:10C70000944800240090169826462546002860D0BC
:10C7100000200C9000986100405A641CC7B2000AC7
:10C7200041008E48405A17990990814203D1F61969
:10C7300001200C9037E0002F35D00C98002805D14F
:10C7400030460A99FFF7A2FC00291DD130460A990C
:10C75000FFF79CFC0D9A89188AB20E9994464018EE
:10C7600081B201207E4A000390610A986246801AD5
:10C7700082B201236046FFF725FD2C20FFF760FD04
:10C78000FFF774FD00200C900999099AF619090A1F
:10C7900071481202114382689207FCD5C1607F1E66
:10C7A0003F063F0EF7D16A4FAD1C78688542B1D382
:10C7B000787800287ED102F08BF8B868811C00914F
:10C7C000008879684018786001A801F023FF0024F0
:10C7D000A0E7002F70D00E986A4681B20D98538C56
:10C7E000128C80B2FFF7EEFC2C20FFF729FDFFF73B
:10C7F0003DFD6A461E20105E918802464A430C9217
:10C800006A46528C801848430A9000986100405A4A
:10C81000641CC7B2000A41005048405A099068465B
:10C8200081883046FFF732FC0C98F619864228D9E9
:10C830006A461C20105E884209D9C919814220D954
:10C84000081AC7B2108CB8420DD2C7B20BE0138CD5
:10C85000C018884215D9CA19904204D2401AC7B2EA
:10C86000BB4200D2DFB209993B480A0A09020A43D7
:10C87000002F06D081688907FCD5C2607F1EFFB2F9
:10C88000F6E70A98864235D2314FAD1C786885426A
:10C89000BBD3787800282DD102F01AF8B868811C33
:10C8A0000091008879684018786001A801F0B2FE14
:10C8B0000024AAE71EE0FFE7284F00986100415AD4
:10C8C000C8B2090A4A00BA5A2349130A120213438A
:10C8D000641C05E08A689207FCD5CB60401EC0B29C
:10C8E0000028F7D11A4EAD1C70688542E5D37078E8
:10C8F000002806D001F0ECFF0120194900038861EF
:10C9000085E601F0E5FFB068811C00910088716840
:10C910004018706001A801F07DFE0024CDE7000002
:10C92000700000205F53444C5F66696C6C5F626D01
:10C9300070206661696C653A626D70696420256477
:10C9400020202073697A653A2564200A00000000DF
:10C950005C000020F206002000380040F0040020B7
:10C96000000400503EB50C460021C94300918100EF
:10C9700004236A46022001F07DFF00281CD0082312
:10C9800001AA0220009901F075FF002814D0083C8C
:10C99000E00F0019C005000E4207C108520F01A8A0
:10C9A00000F0A0FF00060099800D411804236A469C
:10C9B0000220091D01F05EFF00983EBD10B5012365
:10C9C00004E00A2C01D15B1C9BB2401C0478002CB3
:10C9D000F7D118465B1E48435343C01880B210BDC0
:10C9E00030B500234D080AE0240603D55B189BB23E
:10C9F000801C02E0EB189BB2401C9B189BB2047891
:10CA0000002C01D00A2CEFD1002B01D0981A00E0A5
:10CA1000002080B230BD0000F1B588B000200423B2
:10CA20006A460146009001F025FF002803D00099D6
:10CA30000898884202D3002009B0F0BD8100042389
:10CA400003AA0020091D01F015FF0028F4D00423DB
:10CA50006A460020039901F00DFF0028ECD04948F8
:10CA6000009A836B48A0089998470398001D0024FA
:10CA7000039041E00398A6003118042304AA002083
:10CA800001F0F8FE00283AD00498050E3D482946EA
:10CA9000826B43A09047002C3FD044A003C8029172
:10CAA0000190062D26D201AF785D00F02FFF0246DF
:10CAB0004048416871180A61002A5ED0074601A902
:10CAC00004984B5D0102090A002001F0D3FE002802
:10CAD00015D0002005900690786805A930180069E7
:10CAE000FFF702FD01A8415D786833A230180069A4
:10CAF000FFF754FD641CE4B200988442BAD32D4978
:10CB00004868002898D0089808701E48816A002953
:10CB100001D00898884701208EE7009814278000EC
:10CB2000001F86B21436304600F0F0FE214D00287A
:10CB300068601ED03146FFF7ECFA04983B460102CC
:10CB4000090A00206A6801F095FE0028D7D01CA2CF
:10CB500018216868FFF722FD68680C214170009970
:10CB6000491EC17400210191029101A9FFF7BCFC8B
:10CB7000C0E70448816B15A002E00248816B1AA04F
:10CB80008847BCE77000002070616765202564203D
:10CB90007769646765742073697A652025640A0083
:10CBA000747970652025640A00000000141C1C14B0
:10CBB0001C2400003C0000206368696C64000000D5
:10CBC000726F6F742077696E646F7700437265616E
:10CBD000746520726F6F742077696E646F7720665A
:10CBE00061696C2121210A004372656174652063CB
:10CBF00068696C6472656E20776964676574206625
:10CC000061696C2121210A00F8B505461048466883
:10CC1000002E1BD00024143613E0A0003158002948
:10CC20000DD08A882968090A8A4208D36F68C91911
:10CC3000914204D3C01840692946FFF755FC641C93
:10CC4000E4B203484368D87CA042E6D8F8BD0000AF
:10CC50003C00002070B5054600240E4E0CE0A100FB
:10CC600008184069002805D08178C90602D52946F0
:10CC7000FFF73AFC641CE4B27068002802D0C17C63
:10CC8000A142ECD80448426A002A02D003CD000A2F
:10CC9000904770BD3C0000207000002070B5194E18
:10CCA0000546706800280ED02968090A0CD0B068C3
:10CCB000002808D02946FFF717FC2868000A012839
:10CCC00001D10020B06070BDC47C641E17E07168A3
:10CCD000A0004018406900280FD06B681A1419B2E0
:10CCE00001F0C0FE002808D07168A000401840691B
:10CCF0002946B060FFF7F8FB70BD641E24B2002C1B
:10CD0000E5DA70BD3C000020FEB51E4E70680028BC
:10CD100036D0827800211C4FD2070CD0FA68B9684F
:10CD2000009101926946FFF7DFFB7068418849086E
:10CD3000490041800121002419E0A500281842691A
:10CD4000002A12D09278D2070FD07A6939690091FF
:10CD5000019240696946FFF7C7FB7068281840696F
:10CD600041884908490041800121641CE4B270688F
:10CD7000C27CA242E1D8002902D00448006A804760
:10CD8000FEBD00003C000020B8EA00087000002052
:10CD900010B5024B9B689847012010BDB8000020D9
:10CDA0007CB5144E7068002823D01348002403C8B3
:10CDB000019100900EE0A50028184069002807D0D6
:10CDC0006946FFF791FB70682818406900F0FEFD86
:10CDD000641CE4B27068C17CA142ECD86946FFF7DC
:10CDE00083FB706800F0F2FD00207060B060FF20EF
:10CDF00030707CBD3C000020B8EA000870B50D46DC
:10CE000009680446C8B20026002805D004281DD0B1
:10CE1000062814D0701E70BD208AA18A4018E081B7
:10CE2000E08A0A2803D90A21FFF730F900E001203F
:10CE3000E08220466683294601F021FE70BDA1886C
:10CE40001D4A4900208A515A40182EE06088C004CB
:10CE500030D5080A0A282DD1208B002802D0618BFA
:10CE6000814227D0E18A6868FFF710F9002921D1B3
:10CE7000A08A401C80B2A082628A218A511A814213
:10CE800010DA0E48A682416B002901D0204688475F
:10CE9000208B002806D0608B401C80B26083218BE1
:10CEA000884207D0218AA08A0818E0810021204604
:10CEB00001F0D4FD002070BD100E00207000002095
:10CEC0000849002849680AD0021D006840088018F7
:10CED000FF2292008918884200D30020704708463C
:10CEE000704700005400002010B5C91C0268890872
:10CEF000890052088A4203D30B1D9A4200D811467A
:10CF00008A420ED0021D521813685B085B00136042
:10CF10000468DB076408641ADB0F6400083C2343E1
:10CF200013600278D207D20F49000A43026010BD95
:10CF300070B504460868C1B2022930D0032902D076
:10CF40000020C04370BD1C49030A0825CA6A002B93
:10CF500003D0000A012819D02CE0002A02D00021B9
:10CF600020469047608881040AD5010701D5A8436F
:10CF700000E0284360800021204601F06FFD19E0A9
:10CF8000C104F6D5E07C00F0F5FD13E0002A02D0E4
:10CF900001212046904760888104E8D50AE0A07806
:10CFA000000702D52146103101E021460E3120460E
:10CFB00001F02AFD002070BD70000020F0B585B0A2
:10CFC00083680493C66803960469029447693546EA
:10CFD0003A462540B2431543FE4A0197AA180D6808
:10CFE0005B19D2181923DA419219134625463340AA
:10CFF00095432B43F84D82605B194D687D195B1991
:10D000001425EB419D18AC464561674633461540F3
:10D01000BB431D43F14BEB188D6864191B190F249A
:10D02000E34165465C1923462B401546A5432B4337
:10D03000EB4D04615B19CD6875195B190A25EB414D
:10D040001B191F46654627409D432F43E54DC3608E
:10D050007D190E699219AA181925EA41D2181546A8
:10D0600026461D4096433543DF4E8260AF194E6918
:10D070006546AD197D191426F541AF18BC464761C8
:10D080001F4666466546B7431540D84E3D43AD1929
:10D090008E696746A4192C190F25EC416444254676
:10D0A00016463D40A6433543D14E0461AD19CE69C5
:10D0B0009B19EB180A25EB411B191D4625409F4380
:10D0C000CC4E3D43AD19C3600E6A9219AA181925BA
:10D0D000EA41D218154626461D4096433543C64EB2
:10D0E0008260AD194E6A6644AD191426F541AF1839
:10D0F0003D461E461540BE433543C04E4761AD19FF
:10D100008E6AA4192C190F25EC41E5192C461646F8
:10D110003C40AE433443BA4E0561A419CE6A9B1914
:10D12000E3180A24E3415C1923463E462B40A643FC
:10D130003343B44EC4609B1900940E6B92199A1835
:10D140001923DA41121923462C46134094432343F2
:10D15000AD4C82601B194C6B94463C191B1914246E
:10D16000E3419B1843611A466446009E22409E4359
:10D17000A64C324312198C6B2C1912190F24E24160
:10D18000D218144665461C4095432C43A04D0261BD
:10D190006419009DCE6BAD1964190A25EC41A418E1
:10D1A000254616461D409E4335439A4EC460AD1930
:10D1B0004F686646F619AD191B26F5412F193D46F5
:10D1C0002646154096433543934E8760AD198E69C8
:10D1D0009B19EB181725EB41DE19354646613B4696
:10D1E0002640A3431E438D4BF318CE6A92199A181A
:10D1F0001223DA415619B446066162462E463A4079
:10D20000BE43874B3243D2180B686646E318D218E8
:10D210000C23DA419419C460A64662462C40AA4306
:10D220001443804A4B69A218FB18D2181B23DA4119
:10D23000744613191F463740B443274383608C6AF2
:10D24000794A2C19BA1812191724E241D2187446D7
:10D2500016461D462640A543744C2E43351942619F
:10D26000CC6B64442D191224E541AE18B446066116
:10D2700015461E409D436E4C2E4335190E6974466B
:10D28000A4192C190C25EC4164442546664615402A
:10D2900096433543674EC460AE194D6A5B19F31867
:10D2A0001B25EB411B1966461F4625463740B543F3
:10D2B0002F43614D83607E198D6B5219B21817256B
:10D2C000EA41D61832461D462240A5432A435B4D0B
:10D2D00046615219CF686546ED1952191225EA4187
:10D2E00092199446026135461A409D432A43544D93
:10D2F00052190D6A641914190C22D441644425464C
:10D3000062463540B24315434E4AC460AA184D6B7D
:10D3100027465B19D2181B23DA41121964463D4691
:10D320006346A5431340484C2B431B1982608C680D
:10D33000154634191B191724E3419C1823463B401A
:10D34000BD432B43414D44615B19CD69264665447D
:10D350005B191225EB411B191D46154096433543B9
:10D360003B4E0361AD190E6BBE19AD190C27FD4183
:10D37000EE18C6604D69374F551932465A40624023
:10D38000D219AA181C25EA41921982600D6A324FFF
:10D390006519144674405C40E4192C191525EC41BC
:10D3A000A4184461CD6A2D4F5D1923465340734044
:10D3B000DB19EB181025EB411B1903618D6B284F0E
:10D3C00076191D4665405540ED1975190926F54138
:10D3D000ED1847E078A46AD756B7C7E8DB70202479
:10D3E000EECEBDC1AF0F7CF52AC68747134630A8E5
:10D3F000019546FDD8988069AFF7448BB15BFFFF7C
:10D40000BED75C892211906B937198FD8E4379A6EB
:10D410002108B44962251EF640B340C0515A5E2629
:10D42000AAC7B6E95D102FD65314440281E6A1D8ED
:10D43000C8FBD3E7E6CDE121D60737C3870DD5F486
:10D44000ED145A4505E9E3A9F8A3EFFCD9026F678B
:10D450008A4C2A8D4239FAFF81F6718722619D6DCF
:10D460000C38E5FDC5604E68AE4F96192A465A4005
:10D470006240D219B2181C26F241521982600E691C
:10D48000A94FA61914466C405C40E41934191526BE
:10D49000F441A4184461CE69A44F9E192346534019
:10D4A0006B40DB19F3181026F3411B1903618E6AD8
:10D4B0009F4FAE191D4665405540ED197519092657
:10D4C000F541ED18C5604E6B9A4F96192A465A40A1
:10D4D0006240D219B2181C26F241521982600E68BD
:10D4E000954FA61914466C405C40E4193419152672
:10D4F000F441A4184461CE68A4469B1927465740BE
:10D500008E4E6F40BE199B191026F3411B19036103
:10D510008E698B4FAD191E4666405640F619AD19FF
:10D520000926F541ED18C5604E6A874F92192E46BF
:10D530005E406640834C341912191C24E241521992
:10D54000826014460E6B6C405C406644E4193419EA
:10D550001526F441A4184461CE6B7C4F9B192646D6
:10D5600056406E40F6199B191026F3411B190361B2
:10D570008E68774FAD191E4666405640F619AD19B4
:10D580000926F541ED18C5600E689619E2432A4355
:10D59000704F5A40D219B2181A26F24152198260BD
:10D5A000CE696D4FA619DC4314436C40E41934195D
:10D5B0001626F441A41844618E6B684F9E19EB4304
:10D5C00023435340DB19F3181126F3411B19036160
:10D5D0004E69634FAE19D5431D436540ED1975196A
:10D5E0000B26F541ED18C5600E6B5E4F9619E243B0
:10D5F0002A435A40D219B2181A26F24152198260AF
:10D60000CE68594FA619DC4314436C40E419341911
:10D610001626F441A41844618E6A544F9E19EB43B8
:10D6200023435340DB19F3181126F3411B190361FF
:10D630004E684F4FAE19D5431D436540ED1975191E
:10D640000B26F541ED18C5600E6A4A4F9619E24364
:10D650002A435A40D219B2181A26F241521982604E
:10D66000CE6B454FA619DC4314436C40E4193419C2
:10D670001626F441A41844618E69404F9E19EB436D
:10D6800023435340DB19F3181126F3411B1903619F
:10D690004E6B3B4FAE19D5431D436540ED197519CF
:10D6A0000B26F541ED18C5600E69364F9619E24319
:10D6B0002A435A40D219B2181A26F24152198260EE
:10D6C000CE6A314FA619DC4314436C40E419341977
:10D6D0001626F441A41844618E682C4F9E19EB4322
:10D6E00023435340DB19F3181126F3411B1903613F
:10D6F000496A274E6918D5431D436540AD1949193C
:10D700000B25E941049DC91852198260039A8918B2
:10D71000C16002995918016101996118416105B010
:10D72000F0BD000044EABEA4A9CFDE4B604BBBF6BF
:10D7300070BCBFBEC67E9B28FA27A1EA8530EFD415
:10D74000051D880439D0D4D9E599DBE6F87CA21F01
:10D750006556ACC4442229F497FF2A43A72394AB0F
:10D7600039A093FCC3595B6592CC0C8F7DF4EFFF1D
:10D77000D15D84854F7EA86FE0E62CFE144301A3A3
:10D78000A111084E827E53F735F23ABDBBD2D72A9B
:10D7900091D386EBF8B50C460546164620212F4856
:10D7A000FEF7B7FC324621462C48FEF799FC2B4881
:10D7B000082280192AA1FEF7B7FC6C68012C09D158
:10D7C000264930310846FEF721FC2449303108460D
:10D7D000FEF742FC25493046A1430830002905D117
:10D7E000A102890C142901D9841C00E00446204FB1
:10D7F0002146BA6B1FA09047234E2248706001F06B
:10D8000089F8164810213030FEF783FC134A214670
:10D810003032124800F050F8372030600F487268FC
:10D82000303029460D3290470C4A10213032501AC0
:10D8300000F042F809487268303029465932904762
:10D8400000F02CF8286C3168884201D101F048F8CA
:10D85000B96B0EA08847286CF8BD000008090020AD
:10D860007A6B6B65726E656C00000000550000AA53
:10D8700070000020636865636B666C617368203AB2
:10D8800025640A00F00400206800002061757468B7
:10D89000207375636573730A0000000010B50548B6
:10D8A00023234168002002468400401C0A5198420C
:10D8B000FAD310BD6800002070B5054696B0164634
:10D8C0000C461046FEF725FC6846FEF71FFD224673
:10D8D00029466846FEF72CFD69463046FEF7D0FC27
:10D8E00016B070BD30B50446635CFF25521C0020A5
:10D8F0009540AB4302E05A1E1340401C002BFAD166
:10D90000002902D0491E635CF8E730BDF8B5002855
:10D9100024D0C01C85080027AD003C4601262046C7
:10D92000FFF7CEFA040012D020682946C2070AD1B8
:10D930004008884207D32046FFF7D6FA20683043D4
:10D94000271D206000E00027002FE8D005E0002F11
:10D9500003D10348816B03A088473846F8BD000017
:10D9600070000020436F756C646E277420616C6CCE
:10D970006F63617465206D656D6F72790A000000D8
:10D9800010B5002003E02078C00703D02046FFF741
:10D9900097FA08E0002C08D0204611E00168CA0779
:10D9A00004D0002801D00400EDD110BD2268490840
:10D9B000530859184900D207D20F0831114321608A
:10D9C000FFF77EFA0028E9D110BD000010B500284D
:10D9D0001ED0041F206811494008400020600878CC
:10D9E000401CC0B20870102813D220460CE0016819
:10D9F000CA070DD122684908530859184900D207AF
:10DA0000D20F083111432160FFF75AFA0028EED1F6
:10DA100010BD00200870FFF7B3FF10BD54000020B8
:10DA200010B50748054C0121446089022046FEF7E5
:10DA300070FBFF21C9000120216010BDF000002013
:10DA4000540000200C4A002152680DE08B009B1806
:10DA50005B69002B06D01B78834203D188008018B5
:10DA600040697047491CC9B2002A02D0D37C8B425E
:10DA7000ECD80020704700003C00002001480078EE
:10DA8000704700003C00002070B50E4613C8204BC4
:10DA9000154613C318463C2231464838FEF720FB92
:10DAA0001B48182229460C30FEF71AFB194C002699
:10DAB000667000F045FF164D17A03C3DA96B8847E6
:10DAC000A660FF2066602070FFF7AAFF00281BD029
:10DAD00000F03AFB002817D000F04CFE002813D0CD
:10DAE0002868002811D0804700280ED0A868002898
:10DAF0000BD08047002808D06868002805D08047F0
:10DB0000002802D00120607070BD002070BD0000B0
:10DB1000AC0000203C00002066795F6D656D5F6998
:10DB20006E69740A00000000F8B5054640880121BE
:10DB30000843688000240E4F13E0A60030184169A6
:10DB4000002914D0A81D891D00F0AAFD002806D0C8
:10DB50007868012230184069418811434180641C73
:10DB6000E4B27868002802D0C17CA142E5D8F8BDB3
:10DB70003C0000201CB5064900020A6A496A01916E
:10DB8000D1B201436846009100F0CAFA1CBD000002
:10DB9000B8EA00081CB51A48407800282ED0194C65
:10DBA000A069002800D08047E06900281FD0804786
:10DBB0001DE00098C0B2032806D0042808D005282C
:10DBC0000AD0062813D10FE06846FFF767F80EE089
:10DBD0006846FFF73FF80AE0FFF7E2F80098000414
:10DBE000000EFEF719FF02E06846FFF70DF86846E1
:10DBF00000F07EFA0028DCD1FFF786F81CBD00009B
:10DC00003C000020700000203EB50978022902D0B7
:10DC10000020C0433EBD00210191029141896A4626
:10DC200011818189518141880C4AC9040BD5018A2F
:10DC3000009108210625455FC389415ED46801AA89
:10DC40002846A04708E008210625455FC389415EB4
:10DC5000946801AA2846A04700203EBD18EB0008A2
:10DC6000F0B50446087800258BB002281AD00628A3
:10DC700002D0681E0BB0F0BD618820468A0463495B
:10DC8000A28806D552008A5A61A11430F5F74EF9E0
:10DC900003E05200895C017565750021204600F0A3
:10DCA000DDFEB1E021460E31204600F0ADFE04233A
:10DCB00007AA19460320079500F0DCFD0028F0D0E4
:10DCC0000798411C78D0218A04238900091807AAE3
:10DCD0000320091D00F0CEFD0028CBD00295019550
:10DCE0000395102301AA04950320079900F0C2FDB3
:10DCF0000028BFD007980626103007900820A65F9E
:10DD0000205E0025089003E06D1CEDB2102D03D2BB
:10DD10006019007D0028F7D1002072E02018007DF6
:10DD2000C10810296AD2420701A8520F405C0123A2
:10DD30009340184262D001A8FFF7D4FD000607996E
:10DD4000400D4118082305AA0320083900F092FD70
:10DD5000002853D00998002820D161880320800230
:10DD6000012208409202801A27D0904206D16846CC
:10DD7000C08A62896843101A801906B2880B012193
:10DD800080038903401A22D0884207D16946A089BE
:10DD9000098B401A0899401800B208906088C004A6
:10DDA00020D5608A00906846838A1A480022C76896
:10DDB00030460899B8471DE026E06846C08A628967
:10DDC0006843101A00B2C20F10184010D4E7694619
:10DDD000A089098B401A00B2C10F08184110089899
:10DDE0000818D9E76846838A0A48002287683046BF
:10DDF0000899B8476846C08A801906B20998401C3D
:10DE0000C0B20990A84289D3002033E7100E002049
:10DE10002564000018EB000810B500290BD0002283
:10DE20008B5C841823758B5C002B06D0521CD2B2FD
:10DE3000102AF5D301E000210175002100F00EFE4B
:10DE400010BD0000F0B5044608788DB000060D4600
:10DE5000000E09D0012814D0022824D0062819D099
:10DE60000020C0430DB0F0BD207CEF21084020749D
:10DE7000A08A00F0C7FCA0612946204600F0FFFD03
:10DE8000F0E7207CC0060CD4A069002809D0FFF779
:10DE90009DFD06E0A188814A49002046891800F0CE
:10DEA000FFF80020DEE721460E31204600F0ACFDF1
:10DEB000A0690028D6D0207C617C4009FEF752FD85
:10DEC0000890401CCED0207C400904D0617C00200A
:10DED000FEF748FD00E008980B90607CC11DC90862
:10DEE0000691491C49080A910699414305910A99EE
:10DEF000484307900598FFF709FD03900028B1D02B
:10DF0000A069099006250820655F205E0490207CAA
:10DF1000C1070BD0A27D617C0998FEF761FD618984
:10DF2000081A00B2C10F0818401008E0800708D591
:10DF3000A27D617C0998FEF753FD6189081A40199A
:10DF400005B2207C41070DD5E27D617C0998FEF782
:10DF500035FDA189081A00B2C10F081841100498B4
:10DF600008180AE000070AD5E27D617C0998FEF7EF
:10DF700025FDA189081A0499401800B204900026D2
:10DF800084E00A280AD00027FF43010665D5217CDA
:10DF90004909012928D002292ED03EE00625207CFF
:10DFA000655FC1070CD00998A27D617C401CFEF71B
:10DFB00017FD6189081A00B2C10F0818401009E066
:10DFC000800709D50998A27D617C401CFEF708FDF9
:10DFD0006189081A401905B2617CE07D091804982E
:10DFE000081800B204904FE009995E228919A138FF
:10DFF00050434978A1380FE00999891949787F2958
:10E0000004D2BE2281385043403805E0802904D92B
:10E01000BE228138504341380F180598089978433B
:10E02000059B41180220039A00F024FC00282BD005
:10E030007F1C18D0608A00216B46069A07C3637C58
:10E040002846039A0499FEF775FA617CA07D0818AA
:10E050004019761C05B2B6B216E00799079B4843F3
:10E060000B994118DEE7608A01216B460A9A07C3C3
:10E07000637C2846039A0499FEF75CFA607CA17DD4
:10E0800040084019081805B2761CB6B20998805DA0
:10E09000002800D075E70398F9E60000100E002074
:10E0A00070B50446007C0D46C00604D4A069002863
:10E0B00001D0FFF78BFC207CEF210840207400206A
:10E0C000A061002D0ED0287800280BD02846FEF73E
:10E0D00038F8401CFFF71AFCA061002802D029463E
:10E0E000FEF736F80021204600F0B8FC70BD0000B5
:10E0F000024610B509480168814201D1002010BDD7
:10E100000846083818C818C20CC908391A6006C968
:10E1100008384A60FFF75AFC012010BD4800002073
:10E1200010B504461020FFF7F1FB002808D006CCFC
:10E1300006C0044A026051684160086050600120D6
:10E1400010BD00004800002002480060406001202F
:10E15000704700004800002030B50022054CA5257E
:10E1600004E0835CE35C6B408354521C8A42F8DB1E
:10E1700030BD000028EB0008FEB50A4609680446D9
:10E18000C8B2022829D0032804D0062820D00020B5
:10E19000C043FEBD0B0A0820002B03D0090A012949
:10E1A00003D005E06188014301E06188814361801B
:10E1B00050682189020C511A0AB2E188401A01B252
:10E1C0002046FEF76BF90146204600F041F937E1A1
:10E1D000A0889C494000095AF6E76788F8047DD575
:10E1E000A089E67D0025B04208D9618B801B484399
:10E1F000218BFDF761FF7108401885B2B8054AD53B
:10E20000002000900190608969468880A0898E4F27
:10E21000401BC88008210620BE68E389615E205E3D
:10E220006A46B04769464888C9886A4640186946C0
:10E230004880CD802189BE68081801B20620238A53
:10E24000205EB047A07D0028C1D0E07D0028BED070
:10E2500000206A4650801080A07D9080E17DD180B2
:10E26000638A1381A278120705D5A28A774B9A4256
:10E2700001D06B461A816289A389101A228900B2E3
:10E28000D218521B4908511AC30FE28818184010BF
:10E2900009B2101892E0E088694608802089488019
:10E2A00060898880A089684E401BC8807268E189B7
:10E2B0006846904769464888C9884018694648803A
:10E2C000CD807268218A68469047A07D0028BBD027
:10E2D000E17D0029B8D06A46908000E017E0E17D3A
:10E2E000D18062894908101A00B2C30FE288181859
:10E2F000401010186A4610802289A0891018401B0F
:10E30000401A91E0A08A002800D0108194E0608932
:10E31000A67D0025B04208D9618B801B4843218B24
:10E32000FDF7CAFE7108401885B2B8054CD500202B
:10E330000090694601908D80A089C8800821424FD5
:10E340000620BE68238A615E205E6A46B047694641
:10E3500008884019088061894A1B69468A80E188DB
:10E36000BE680818082100B2E389615E6A46B047BA
:10E37000A07D002864D0E07D002861D0002069469F
:10E3800048800880A27D8A80E07DC880638A0B81F6
:10E39000A178090705D5A18A2C4B994201D06B467B
:10E3A0001981A1895208081A00B2C30F21891818CF
:10E3B0004010081801B2E0884019801A6A46BC680B
:10E3C00000B21389A0473BE0E088694608802089B5
:10E3D00048808D80A089C8801B4E218A726868465B
:10E3E000904769460888401908806089401B8880EA
:10E3F0007268E18968469047A07D002820D0E17DC1
:10E4000000291DD06A469080E17DD180E2884008D5
:10E410005219101A6A461080A089401A00B2C20F21
:10E4200021891018401008186A465080608A1081AF
:10E43000A078000700D565E71046118972689047FB
:10E440000020FEBD100E002018EB0008FFFF0000AA
:10E4500010B50446008B884200D20146608B88428A
:10E460000AD006486183026B002A01D020469047FB
:10E470000021204600F0F2FA10BD000070000020DC
:10E480000878032802D00020C0437047002070475E
:10E49000F0B5102505273F07BD62264C2073A06804
:10E4A0008007FCD5080C2073A0688007FCD5080AFB
:10E4B0002073A0688007FCD52173A0688007FCD575
:10E4C00000262673217B1C480170A1688907FCD5B2
:10E4D0002673217B0170A1688907FCD52673217BF7
:10E4E0000170A1688907FCD52673217B0170A168A2
:10E4F0008907FCD52673217B0170D118091F06E01E
:10E50000A0688007FCD52673207B1070521C8A42BD
:10E51000F6D3A0680006FCD4BD61042B00D304230D
:10E52000002003E0217B1170401C521C9842F9DB53
:10E53000F0BD0000003001405000002010B5102355
:10E5400005242407A3620E489F210173816889076F
:10E55000FCD50022027381688907FCD502738168AB
:10E560008907FCD5027381680906FCD4A361017B8D
:10E57000027B017B037B100409020843184310BD92
:10E5800000300140F8B504460830FDF7EAFD0546C5
:10E590001E4E1D48B060102D00DA1025201DFDF71D
:10E5A000E0FD01466B001A4A012000F063F92046A5
:10E5B00010300090FDF7D5FD0546FF2720460137B6
:10E5C0000C30BD420BD9FDF7CCFDB26801463B468D
:10E5D0000120921C00F04EF9B06807800DE0FDF7B5
:10E5E000C0FDB26801462B460120921C00F042F9A2
:10E5F0000098FDF7B6FDB16808800348716800888F
:10E6000040187060F8BD0000F00600205C0000209B
:10E61000F0040020F8B5204E07463078002801D0DD
:10E62000002000E001203070FF21C0B203314843D8
:10E630001A49451838461030B5600090FDF791FD35
:10E640007468A04202D101207070F8BD3946E21D05
:10E650000C31F932904211D2071B0846FDF781FDBB
:10E6600001193B46AA1C012000F01CF90098FDF797
:10E6700078FDB188401AB1680880F8BD0846FDF7FA
:10E6800070FD0119FF2401342346AA1C012000F06B
:10E6900009F9B0680480F8BD5C000020F006002095
:10E6A00010B50022825E8388D4180023CB5E9C4282
:10E6B00011DD8C881B1993420DDD0222825EC08819
:10E6C00013180220085E834205DDC9884018904275
:10E6D00001DD012010BD002010BD70B50023002514
:10E6E000C35E84884D5F8E88E418761924B236B2F2
:10E6F0009D4200DD2B461380A64200DA3446E31A21
:10E70000002B00DC00239DB2958002230224C35E0F
:10E710000C5FC088C988C018091900B209B29C42B0
:10E7200000DD23465380814200DA0846C01A0028E3
:10E7300000DC002080B2D080002D03D0002801D062
:10E74000012070BD002070BD10B50023C35E8B4258
:10E750000DDC84881B198B4209DD0221415E914248
:10E7600005DCC0880818904201DD012010BD0020A2
:10E7700010BD0000F8B5FF2214211548FDF7C2FCBA
:10E78000144C15A0A16B8847042269460020FEF7AF
:10E79000FFFA002803D014490098884205D0A26BE4
:10E7A00012A0009990470020F8BD0425084E0024CF
:10E7B000A000811904222846FEF7EAFA002805D0B5
:10E7C000641C2D1DE4B2ADB2052CF1D30120F8BDBF
:10E7D000F4080020700000207265736F7572636525
:10E7E0005F696E6974200A005A4B00006D616769A9
:10E7F00063202558206973206E6F74206D617463E7
:10E8000068210A001CB500210446009104236A46D1
:10E810000320019100F02EF8002823D00099481C15
:10E8200020D0A000411804236A460320091D00F0EF
:10E8300021F8002817D0042301AA0320009900F032
:10E8400019F800280FD00198FFF760F804000FD0E6
:10E85000009902460320091D019B00F00BF80028D7
:10E8600002D005E000201CBD2046FFF7AFF80024D1
:10E8700020461CBD10B514460A4605280DD281005D
:10E8800007484058411C08D080181A462146FEF718
:10E890007FFA002801D0012010BD002010BD00002B
:10E8A000F408002010B505280CD284000648005951
:10E8B000441C07D0401811461A46044BDB689847A1
:10E8C000012010BD002010BDF4080020B800002079
:10E8D00010B5024800698047012010BDB800002033
:10E8E000F0B50A4E0A4D0024A0008119096829508C
:10E8F000401907460421FFF72FFC38460421FDF795
:10E9000045FD641C052CEFDBF0BD000000C00008D5
:10E910000000002030B5084823234068074C002140
:10E920008A0015192D68491C85509942F8D3990021
:10E93000FFF712FC30BD00006800002000C0000896
:10E9400070B5BAB0FFF7FAFD294900908A6B01460D
:10E95000082428A090472A4900982A4D884202D0CE
:10E96000491C884225D11023264A00214B20FFF75D
:10E970008FFD102400200F23191A2A5C6E5C2E5480
:10E98000401C6A540828F7DBFF22202131A8FDF73C
:10E99000B9FB10221B4931A8FDF7A2FB03226946EF
:10E9A00035A8FDF79DFB174A132131A8FEF784FF18
:10E9B0000FE00823134A00214B20FFF769FD0020D8
:10E9C0000723191A2A5C6E5C2E54401C6A540428D2
:10E9D000F7DB0121C02301AA09034820FFF758FDF6
:10E9E0002246084901A8FEF7D5FE3AB070BD0000E6
:10E9F0007000002069646C656E203A25780A00007A
:10EA000017405E00D00000207CB54288124C930570
:10EA10001DD5D20509D50B8808210625455F415E25
:10EA2000A468821D2846A0477CBD00220092019266
:10EA300042896B469A808289DA800B8808210625F4
:10EA4000455F415EA4686A462846A0477CBD62686F
:10EA50000988801D90477CBD18EB000810B5FFF7B2
:10EA600063F810BD10B583785B0706D5801DFFF7EE
:10EA70006BFE002801D0012010BD002010BD10B594
:10EA800009780906090E04D0022906D00020C043E7
:10EA900010BD0021FFF7E2FF03E001460E31FFF752
:10EAA000B3FF002010BD10B54288920503D5C18187
:10EAB0000021FFF7D3FF10BD01000000000000009F
:10EAC0000200000000000000020000000000000042
:10EAD000060000000000000005000000000000002B
:10EAE0000000000009DC00080100000045DE00080D
:10EAF00002000000FDCD00080300000031CF000837
:10EB00000400000079E100080500000061DC000855
:10EB10000900000081E40008A9C300084DC40008F2
:10EB2000E5C3000819C400088F3AF07E795FA6CBD0
:10EB300058CE71A897B6D816C8CCA57D639B67BD83
:10EB4000A9EC5D86D15698EA9D420D6FB0DC25D2C6
:10EB5000B2B3A754091D83E71A3F50E061C18DBBD2
:10EB6000C4528B27E819396DE1CAEF9F732CF99ACB
:10EB7000FBAFE3C04075DFDE0736FE2D60C5D3D0A6
:10EB800029FC622BBF3712FD17F44AB57F0EF34103
:10EB900094B7EE9CA33ED5555C4EA07C76BAAD886A
:10EBA00081ED2FC9536606D4110ADD4F31261F5B54
:10EBB0004368356CA433BC03701402D772C74C8E03
:10EBC000B1643469AB999E45227AC2D94604E53CCA
:10EBD00048FF101C0B800C32EB15D665FA6B4DB458
:10EBE00049E2CDC33D284B448400C6F70F3B187B58
:10EBF000A2B9825EDA6E2A928CF1A1E908DB38F5BF
:10EC0000960559AEAC6A771B5A23CF47B8F25187A5
:10EC100091AA203089F6780124851E93958A905711
:10EC2000F813E6BE2E7421E4C2EC2EF246675911A9
:08EC30007B1F51A28C0F2A8406
:04000005080000C12E
:00000001FF
