:020000040800F2
:10000000281A0020D500000859280008CB22000833
:1000100000000000000000000000000000000000E0
:10002000000000000000000000000000812B00081C
:1000300000000000000000005B2800083D2C0008C4
:10004000E700000800000000E7000008E7000008E3
:10005000E70000081D080008E7000008270800085E
:1000600000000000B5060008C5060008E70000080B
:10007000E7000008E7000008E700000800000000B3
:10008000E70000080000000000000000E700000892
:1000900000000000E7000008E7000008E700000893
:1000A000E7000008E7000008E7000008E700000894
:1000B0001D350008000000000000000000000000E6
:1000C0000348854600F050FA00480047913F000879
:1000D000281A00200448804704480047FEE7FEE74E
:1000E000FEE7FEE7FEE7FEE7CD2C0008C1000008B2
:1000F00030B50B46014600202022012409E00D46C0
:10010000D5409D4205D31D469540491B2546954047
:1001100040191546521E002DF1DC30BD70B500248B
:100120002546002801DA01244042002901DA012590
:100130004942FFF7DDFFAC4200D04042002C00D026
:10014000494270BDD2B201E00270401C491EFBD290
:1001500070470022F6E710B513460A4604461946D2
:10016000FFF7F0FF204610BD0321001D401E03785D
:1001700012021A43491EF9D510467047F0B51FB454
:100180000646002082B005464024019100901BE005
:10019000019922460F46304600F008FA049A059B62
:1001A000801A994110D310461946224600F0EEF904
:1001B000361A8F410197224601200021009F00F04E
:1001C000E5F938184D4100902046641E0028DFDC18
:1001D000019B00982946324607B0F0BDF0B50746AE
:1001E0000846584087B0C00F049048000E4659009A
:1001F00040084908BC1A884105D2384631461E4697
:1002000017460B4602465800400810434CD0300DAC
:10021000039040055900400D490D0590401A029089
:10022000402872DA18030121000B090508430190E8
:1002300004980092002805D001995242002088417C
:1002400000920190029840210A1A0199009800F04A
:100250009DF905460C466B4607CB00F0B8F9C0196E
:100260007141039A0E0D0023D71756401A467A4063
:10027000164344D0049A002A2DD0029A012A039AE8
:1002800015DC1205C01A914101263605001C71418A
:10029000D20F059ED2070093019202962A4623466A
:1002A00000F0B5F907B0F0BD38463146FAE716055B
:1002B000224A0F46B218C01AB74101210905001C95
:1002C0004F4100187F41114618187941E20F104341
:1002D0006D19644113E0E2076D0815436408C20715
:1002E0001443039A01261205C01A91413605001CD9
:1002F0007141CE07400830434908C01851412A4691
:10030000234600F077F9CDE7FFE70498012240008B
:10031000C117121A00238B4104983146C417381AAA
:10032000A141EEE730B40124E407634030BC55E757
:1003300030B40124E407614030BC4FE70000E0FF27
:10034000F0B51FB488B00B9909980024484009996A
:10035000C00F490049080991C0070B990090490056
:1003600049080B9109990898A64608431CD00B9997
:100370000A98084318D0099801244000420D48000B
:10038000410D099824050003000B204309900B98A8
:100390000003000B20430B9050181C49401800220A
:1003A00001901446104605E0002001460DB0F0BD56
:1003B000032801DA034600E003239C46C11A0AAE73
:1003C0000AE05F0008ADED5B4F00F75B7D4300275F
:1003D000AA187C41491C5B1E6145F2DD410004AB5B
:1003E0005A522104120C0A43240C401C0828DFDB5B
:1003F000019802900099704601910090059B049A23
:100400000799069800F003F9D0E700000DFCFFFF04
:10041000F0B50C465C4085B0E40FE40703944C0053
:100420000026640859009446490802460296224371
:1004300021D062460A431ED06200570D4A000E03C7
:100440002303550D012402462C492405781B1B0B60
:10045000360B401823432643614600901C46501A31
:10046000B44103D30098401C009002E09218009819
:100470005B41002803DA0020014605B0F0BD0020F2
:10048000012109050746864611E064461D46141BF6
:10049000B54106D36546521BB341744607430C432E
:1004A000A646CD0740084908284392185B410546F7
:1004B0000D43EAD11046184313D060461946504008
:1004C0007140084306D06046101AB34106D201229B
:1004D000002306E000220123DB0702E00122D243D1
:1004E0005310009874460105381C6141029C039D1D
:1004F0000019694100F07EF8BFE70000FD0300002D
:100500004A0009030123090B1B0519430A4B10B5C7
:10051000520D9A4202DA0020014610BD064B3433D8
:100520009A4203DC9A1A00F041F810BD034BD2182E
:1005300000F02CF810BD0000FF030000CDFBFFFF12
:1005400010B5002904DB0124E40740428C41214618
:10055000002B04DB1C460123DB075242A3419942D6
:1005600000D1904210BD0000064C0125064E05E06A
:10057000E36807CC2B430C3C98471034B442F7D3C4
:10058000FFF7A2FDB0520008D052000810B5202A93
:1005900004DB0146203A9140002010BD9140202309
:1005A0009C1A0346E3401943904010BD10B5202A21
:1005B00004DB0846203AD040002110BD0B46D34052
:1005C000D0402024A21A91400843194610BD10B50E
:1005D000202A06DBCB170846203A1041C1170B43EF
:1005E00006E00B461341D0402024A21A9140084354
:1005F000194610BD10B5002B08DA0024401C6141DB
:1006000092185B411A4301D14008400010BDF0B57B
:100610001FB482B005460C0003D0084602F0A6FFC6
:1006200002E002F0A3FF2030024600902146284657
:10063000FFF7ACFF049B059A04460F46184311438D
:10064000084314D0184610431BD0009840210A1AC2
:1006500018460599FFF7AAFF05460E46009A059928
:100660000498FFF793FF084305D0012004E02046DB
:10067000394607B0F0BD0020C11705430E432C4397
:10068000374300990E986305401A7905E40A002261
:100690000C43FD0A0A3002D500200146E9E70105B6
:1006A000101969410C9C0D9D00196941FFF7A2FFCB
:1006B000DFE7000010B5024800F01EF910BD000091
:1006C0003011002010B5034800F016F9024800F080
:1006D00013F910BD78100020D410002010B5044686
:1006E000007814210838FFF703FD216C064A8908B9
:1006F00089008918616404498031A1641C21084083
:1007000001218140E16410BD000802400179074BDE
:100710008A00D2180265054A4432491E42658A079A
:10072000920F01219140816570470000FC08024052
:10073000F0B5846CC56C6560046D002C02D0446D0E
:10074000856D65600B4F7C68056C1C263540012665
:10075000AE4034437C60046863608368102B036898
:1007600003D099600068C260F0BD9A600068C16003
:10077000F0BD000000000240F8B516460F460446E2
:10078000002502F06DF8002802D1A068B0420CDA12
:100790000120F8BD21682069405C78552068E16837
:1007A000401CFFF7BBFC6D1C2160B542F2DBA0686A
:1007B000801BA0600020F8BD70B586B0142168468B
:1007C000FFF7C7FC1248416B022421434163406B91
:1007D00000252040059001200E4E009001900295CA
:1007E00069460395304600F0D1F90B4801906946FF
:1007F00002950094304600F0C9F900221146052008
:1008000000F04CFC052000F03DFC06B070BD00007F
:1008100000100240000400500000211010B502201A
:1008200000F088F910BD10B50120C00200F082F977
:100830000120000300F07EF910BD10B50A46044601
:1008400002F015F8002804D1A168E068401A0128D8
:1008500001DA012010BD6168206942546068E168D6
:10086000401CFFF75BFC6160A068401CA06000209A
:1008700010BD72B6FEE70000F8B501460024203135
:1008800001230B714A79022A03D00421C163012498
:100890002DE0026815680E26B543156002681568DC
:1008A0006D086D001560426C1568FF260136B54372
:1008B0001560104E7268056C1C273D401F46AF4006
:1008C0003A437260826CC56C5560026D002A07D095
:1008D0001668FF250135AE431660426D856D556083
:1008E0004B7100220A71816B002900D08847204695
:1008F000F8BD000000000240F0B42C4D2B680168E8
:100900000A68046C1C273C400426A6401E4211D0F5
:1009100056070FD50A68920603D40B680422934346
:100920000B606A68036C04213B4099400A436A608B
:10093000016B1CE00227A74006461F402036002F0F
:1009400019D0970717D50A68920605D40A680A23B2
:100950009A430A60012171716B68026C1C210A4084
:10096000022191400B436B6000213171C16A002963
:100970001AD0F0BC08470827A7401F4214D012071E
:1009800012D50A680E239A430A606A68036C1C2118
:100990000B4001210C469C4022436A60C163717187
:1009A00000213171416BE2E7F0BC7047000002406A
:1009B00070B504003DD02448256814212818FFF79D
:1009C00097FB80002064022026462036707128683C
:1009D0001E4908402860A168E068626901432069F7
:1009E00010430143A0690143E0690143206A0143C8
:1009F00020680268114301602046FFF76FFE012165
:100A0000A06889030025884200D16560616C207967
:100A10000860A06CE16C41606068401E03280AD841
:100A20002046FFF773FE206D0560606DA16D41608B
:100A300004E0012070BD25656565A565E5630120BD
:100A400070713571002070BDF8FFFDBF0F80FFFF92
:100A5000F8B5054604462035287900278C4601283C
:100A60000AD00120287168790026012806D02E714D
:100A700002272E713846F8BD0220F8BD02206871A9
:100A8000E663206801684908490001606146204624
:100A9000FFF74EFE206B00282068016801D00E226F
:100AA00005E0042291430160206801680A22114395
:100AB0000160606C0168CA03084902D502680A43F4
:100AC0000260206D002802D002680A43026020689C
:100AD0000168012211430160CBE700000001000022
:100AE00070B5044600F0F2F80546601C02D00448D8
:100AF0004068241800F0EAF8401BA042FAD370BD09
:100B0000000E00200020052109070A69120500D502
:100B100001200969C90401D502210843044A517919
:100B20008B079B0F834202D08900084350717047A6
:100B3000400E002070B5084D0446E868204203D0FE
:100B4000EC60204600F00AF82869204203D02C61AE
:100B50002046FFF7D7FF70BD001802400020052196
:100B600009070A69120500D501200969C90401D5E0
:100B700002210843044A51798B079B0F834202D01C
:100B80008900084350717047400E0020F0B50022E4
:100B900087E001249440A44623407DD04C68022C79
:100BA00001D0122C0CD1D408A40027183D6A540798
:100BB000E40E0F26A640B5430E69A6402E433E62C2
:100BC000066855000324AC400F79A643BF07BF0F4A
:100BD000AF40374307604E68012E05D0022E03D088
:100BE000112E01D0122E0ED18668CF68A643AF40D9
:100BF0003743876047686646B7430E79F606F60FB7
:100C000096403E434660C668A6438C68AC40344379
:100C1000C4604C68E40043D59508254CAD002F19FD
:100C20003D6E9407E40E0F26A640B5430526360711
:100C3000B04201D100260FE01E4EB04201D1012684
:100C40000AE01D4EB04201D1022605E01B4EB04223
:100C500001D1032600E00526A6402E43144D3E6632
:100C6000134E803634684F689C43FF0300D51C4305
:100C7000346074684F689C43BF0300D51C437460A4
:100C80002C684E689C43F60200D51C432C606C68AF
:100C90004E689C43B60200E002E000D51C436C6045
:100CA000521C0B681C46D44000D072E7F0BD000017
:100CB000001802400004005000080050000C0050D2
:100CC000002A01D0816170478162704701488068C5
:100CD00070470000000E002070B502464032537885
:100CE000202B1CD11378012B19D00124147024233C
:100CF000537003681D68A5431D6003681D682603C3
:100D0000B5431D6003681D680D431D6000680168E0
:100D100021430160202050700020107070BD02201F
:100D200070BD70B5024640325378202B1BD113782A
:100D3000012B18D0012515702423537003681C68FB
:100D4000AC431C6003681C680F263602B4430902DA
:100D50002143196000680168294301602020507018
:100D60000020107070BD022070BD000070B504003E
:100D700006D02546403568780026002802D005E0D8
:100D8000012070BD2E70204600F0F4F82420687019
:100D9000206801684908490001600F216068090660
:100DA000884321680861206882680121C9038A4359
:100DB0008260E0680128A06808D0212292021043D6
:100DC00022689060E068022802D005E00843F7E757
:100DD00001202268C0025060206842680F4B1A430D
:100DE00042602068C2688A43C26061692069084322
:100DF000A169090208432168C860216AE0690843C3
:100E0000216808602068016801221143016066645E
:100E1000202068702663AE70002070BD0080000244
:100E2000FFB5054604464035687883B0202875D163
:100E30000C98002814D00D98002811D0287801288B
:100E40006CD001202870FFF741FF06460122009078
:100E50001923D103204601F0CBFA002874D103E016
:100E60000120400260646FE0222068704020A8707A
:100E7000002767640C9860620D98608567630E9820
:100E80000090019604A90EC9204601F06DFA0028D1
:100E900001D02F7058E0618D3448FF2905D9FF2219
:100EA000228501231B06009006E0618D21850090BC
:100EB000208D0123C2B25B062046049901F084FA1A
:100EC00000960022042120460E9B01F091FA002892
:100ED0003AD12068406A616A0870606A401C6062AA
:100EE000208D401E80B22085618D491E6185618DF7
:100EF00000291FD000281DD1009600228021204605
:100F00000E9B01F075FA00281ED1608DFF2806D9CE
:100F1000FF22228501231B06009707E024E0608D55
:100F200020850097208D0123C2B25B0620460499DC
:100F300001F04AFA608D0028C2D1324620460E994F
:100F400001F07DFA002802D0012007B0F0BD206832
:100F50002021C16120684268054B1A4042606970D7
:100F6000AF702F700020F0E70220EEE70024008031
:100F700000E800FE10B586B0044614216846FFF76D
:100F8000E8F81249206888421DD1114C616B02209B
:100F900001436163616B01400591C0200090122004
:100FA00001900120029000200390062004906946E1
:100FB0000848FFF7EBFDE16B012040050143E163C9
:100FC000E16B0140059106B010BD000000540040E7
:100FD00000100240000400500248816842688918ED
:100FE00081607047000E002010B508480024016899
:100FF000821511430160204600F00AF8002801D054
:10100000012401E000F028F8204610BD0020024035
:1010100070B50F4E002471680546002915D07D205B
:10102000C000FFF765F801460A480068FFF760F85E
:1010300000F08CFE002808D1042D06D2002229469B
:10104000401E00F02BF8356000E00124204670BD02
:10105000000E00200C0E002008B50948016801228E
:101060001143016000681040009005484038C26B91
:1010700001040A43C263C06B0840009008BD000031
:1010800040100240002805DBC106C90E012088403F
:10109000014908607047000000E100E010B502F06F
:1010A00089FA10BD10B50F4C2168032252029143FA
:1010B00001432160C11FFF39FA390ED10A480621C8
:1010C000006848430949FFF713F8401C02E0002874
:1010D00005D0401E61694905F9D4002010BD0320E8
:1010E00010BD0000007000400C0E002040420F00B8
:1010F000FEB5044600250068524E2F46800359D5A0
:10110000002001904F484038C06BC0000AD44D48C1
:101110004038C26B01040A43C263C06B08400090B0
:101120000120019048480168821511430160FFF7D2
:10113000CDFD009007E0FFF7C9FD0099401A022895
:1011400001D903252CE040480068C005F3D5002DE7
:1011500026D1F0690321090208400FD0616981425C
:101160000CD0F06903210902F269884301210904C6
:101170000A43F261F2698A43F261F061C00759D013
:10118000FFF7A4FD009006E0FFF7A0FD0099411ACB
:101190002E488142D5D8F0698007F5D5002D49D079
:1011A0002F460198002805D026484038C26B01041C
:1011B0008A43C2632078C00705D0706961688008DF
:1011C0008000084370612078400606D570690321CD
:1011D00009038843A168084370612088400411D541
:1011E00070692169800080080843706101212069CD
:1011F0008907884206D113484038C1680122120489
:101200001143C1602088000512D57069032189034C
:101210008843E168084370610121E06889038842DE
:1012200006D108484038C168012212041143C16048
:101230003846FEBDF069032109028843616908430D
:10124000F061AEE7401002400070004088130000DB
:10125000F8B50D46040044D04D4800684007400FE3
:10126000A84214D24A4F3868C008C00028433860EA
:10127000FFF72CFD064605E0FFF728FD811B4548DA
:10128000814260D838684007400FA842F4D12068F6
:10129000414E81070DD5400704D5B06807210903E9
:1012A0000843B060B0680F2109028843A168084371
:1012B000B0602078C00731D0606801280AD00228C9
:1012C0000BD000280FD03449403103280ED0C96913
:1012D000890704E03168890301E031688901002948
:1012E00006DB0120F8BD31684905F8E7096AEFE738
:1012F000B168C908C9000143B160FFF7E7FC0746C0
:1013000005E0FFF7E3FCC11B224881421BD8B0680F
:10131000382108406168C9008842F2D11C48016840
:101320004907490FA94216D90168C908C9002943CC
:101330000160FFF7CBFC074607E0FFF7C7FCC11BC6
:101340001448814201D90320F8BD114800684007C4
:10135000400FA842F1D12078400706D5B168072098
:1013600000038143E0680143B16000F031F8B168E7
:101370003C2289091140094A515CC906C90EC8407E
:101380000749086007480068FFF742FEF8BD000003
:101390000020024088130000001002408051000825
:1013A0000C0E0020000E00200648074900688968DE
:1013B000064A4904490F8900515CC906C90EC84054
:1013C000704700000C0E002000100240C0510008C1
:1013D00010B5204CA068204A8006400F16D0A068A7
:1013E0008006410F501001290FD0A1688906490FCE
:1013F000022912D0A0688006400F042823D0A068DC
:101400008006400F032821D0002010BD2068012154
:101410008004400F8140104612E0E1688B07E168CC
:101420009B0F4906490F491C032B00D01046FEF7BD
:101430005FFEE1684904490E4843E168490F491CD1
:10144000FEF756FE10BD0120C00310BD7D20000236
:1014500010BD0000001002400024F400F8B50400A4
:101460007ED020783827C007E94E002845D0B068E4
:10147000F16838408907890F102802D008280AD05F
:1014800001E0032907D0012160680904884209D1DD
:101490003068084314E0306880032ED56068002867
:1014A000DED02AE0052301221B0492049842306812
:1014B00002D110433060EBE78843306030689043DE
:1014C0003060606800280CD0FFF700FC054604E09F
:1014D000FFF7FCFB401B642872D830688003F7D507
:1014E0000BE0FFF7F3FB054604E0FFF7EFFB401BC3
:1014F0006428F1D830688003F7D42078800768D555
:10150000B068F16838408A070721920FC902102895
:1015100002D0002813D001E0022A10D0E068002891
:10152000306845D088432169084330603168FF2026
:10153000013001433160FFF7C9FB05462CE03268FA
:10154000520502D5E268002A8AD072687F231B0206
:101550009A4363691B021A437260002810D100E0AD
:101560008CE030688843216908433060306801218D
:101570008004400F8140A748FEF7BAFDA6490860E5
:10158000A6480068FFF744FD002877D121E0FFF767
:101590009DFB401B02289FD830684005F7D5706836
:1015A0007F2109028843616909020843706010E0E5
:1015B000FF21013188433060FFF788FB054605E0D5
:1015C000A6E0FFF783FB401B022885D83068400562
:1015D000F7D42078924D00072ED5B0688006400FD2
:1015E00003280AD0A0690028286A16D001210843E0
:1015F0002862FFF76BFB07460BE0286A80071BD5C4
:10160000A0690028A0D017E0FFF760FBC01B0228EC
:101610007ED8286A8007F7D50EE04008400028628F
:10162000FFF754FB074604E0FFF750FBC01B0228FE
:101630006ED8286A8007F7D4207840076BD5002041
:101640000090B0688006400F042818D0F06BC000EE
:1016500008D4F16B012000070143F163F16B0140F5
:10166000012000906F480168C90518D401688215EF
:1016700011430160FFF72AFB07460CE084E0E869AC
:10168000800748D5A06800287ED044E0FFF71EFB05
:10169000C01B02283CD863480068C005F6D5A06886
:1016A000012810D004210528E86910D04008400026
:1016B000E861E8698843E861A068002814D0FFF772
:1016C00005FB07460CE0E86901210843F3E70843FE
:1016D000E861F8E7FFF7FAFAC11B534881426ED878
:1016E000E8698007F6D50CE0FFF7F0FA074605E059
:1016F000FFF7ECFAC11B4C48814260D8E8698007CB
:10170000F6D40098002806D0F06B0121090700E00C
:1017100055E08843F063E069002877D0B168890616
:10172000490F022951D001273F06022830680DD009
:10173000B8433060F06880088000F060F0683B4992
:101740000840F060FFF7C2FA04463AE0B843306060
:10175000FFF7BCFA054604E0FFF7B8FA401B022881
:101760002DD830688001F7D4616A206AA26A0843E4
:10177000E16A120211430843216B0843F1682C4AC5
:1017800011400843F06000E03EE0306838433060CC
:10179000F068012109070843F060FFF797FA044653
:1017A00004E0FFF793FA001B022808D83068800194
:1017B000F7D52BE0FFF78AFA001B022801D9032096
:1017C000F8BD30688001F5D420E00128F8D0F06839
:1017D000226A8107890F914216D17021626A014005
:1017E000914211D17F21A26A090201401202914265
:1017F0000AD11F214904E26A0140914204D1400FFD
:10180000216B4007884201D00120F8BD0020F8BDBF
:10181000001002400024F4000C0E0020000E0020F6
:10182000401002400070004088130000FFFFFEEFF0
:101830008C80C11F7047F8B5040007D000262546EC
:101840004035A662687F002802D005E00120F8BD7F
:101850002E77204600F04CF802226A772068016853
:101860004023994301600723E0681B02984201D995
:10187000002101E0012109030F273F02B84202D0F5
:10188000984200D0A662276B002F05D1984201D95B
:10189000226301E001202063A2686068636910434D
:1018A00022691A4310430123A2695B021A401043C4
:1018B000E2691043226A1043A26A10432268106052
:1018C000626B606AA36910431B0C0427E2683B400B
:1018D0001A4310430843216848602068C1697A02AE
:1018E0009143C1612666012068770020F8BD0000A1
:1018F000F0B587B0044614216846FEF72AFC454A35
:1019000021684548022703250026914244D14249D7
:1019100040310B68821413430B6009681140059134
:10192000416B012211434163406B029610400590C8
:10193000C220009005206946019704960395000790
:10194000FFF724F9364D3548AE601027EE6081C5AB
:10195000EE602E616E618020AE61A8603048083D67
:10196000FFF726F8002801D0FEF783FFA5652B4876
:10197000AC622C4D14302860AF601120EE606860BE
:101980006E61AE61EE6180202E622861284639E0EA
:101990006565AC6207B0F0BD234A9142FAD1C16BD4
:1019A00012141143C163C16B11400591416B39435E
:1019B0004163406B0197384005901011009005205D
:1019C00004900296039569461848FFF7DFF8012056
:1019D000C002009002966946019704960395134849
:1019E000FFF7D4F80D48124D1438286013206860B2
:1019F0001020EE60A8606E61AE61EE6180202E6204
:101A000028612846FEF7D4FF0028C1D0FEF731FF39
:101A1000BEE7000000300140001002401C00024000
:101A200078100020D410002000380040000400503E
:101A300030110020F8B5054683680026403504467D
:101A4000002B03D16068C71FFD3F09D0287F012804
:101A50000ED001272F77687F01280BD002267EE069
:101A60000420687713460A46204600F08FF8F8BD38
:101A70000220F8BD002926D0002A24D0042068774F
:101A8000002020662164AA80EA80E0642065A087A7
:101A9000E0870120C003834204D1206801685A1006
:101AA0009143016020684268012149038A434260F2
:101AB0000722E06812024B109042206805D9416865
:101AC0009943416019E0012649E042681A434260A7
:101AD000A06D01228069920290420ED12068426876
:101AE0009A434260E888C0072068426821D00A43D0
:101AF0004260E8884008401CE880A16D1A480863ED
:101B0000A16D1A48C862A16D19484863A16D0020F3
:101B10008863EB882168226C0C31A06DFEF798FF7A
:101B200000280BD0206E10210843206601266F7715
:101B300015E08A434260E8884008DDE720680168D4
:101B4000490603D4016840221143016020684168BE
:101B500020221143416020684168394341600020E0
:101B600028773046F8BD0000D7280008EB28000889
:101B7000B5280008102005210907886101490020C7
:101B800008707047180E002070470000F8B5054631
:101B900004464035287F002696468C4601280CD006
:101BA00001272F77687F616801280CD0CA1FFD3A92
:101BB00007D1A168002904D101E00220F8BD042862
:101BC00001D00226ADE06046002827D070460028EC
:101BD00024D0002B22D0687F042801D0052068770C
:101BE000002020666146A163A387E38771462164D4
:101BF000AB80EB80E06420652068416803225203DB
:101C00009143416007210123E06809021B038842D8
:101C10002068416804D9994341602BE0012680E0A7
:101C200019434160606D81690120800281420BD1BE
:101C3000A08F3E49C0072068426834D00A43426002
:101C4000E08F4008401CE087A06D81690120800280
:101C500081420FD12068416899434160E888344946
:101C6000C0072068426823D00A434260E8884008E1
:101C7000401CE880687F04281FD0A16D2D480863B0
:101C80002D48A16DC862A16D2C484863A16D00204C
:101C90008863EB882168226C0C31A06DFEF7D8FEBA
:101CA000002825D10EE08A434260E08F4008CAE751
:101CB0008A434260E8884008DBE7A16D204808635A
:101CC0002048DEE72068416839434160616D0020AB
:101CD0000863616DC862616D4863616D8863E38FFD
:101CE0002268A16B0C32606DFEF7B2FE002806D0B0
:101CF000206E10210843206601266F7711E02068CE
:101D00000168490603D4016840221143016020683C
:101D1000416820221143416020684168022211433A
:101D20004160002028773046F8BD000000400000E8
:101D300000200000E128000843290008B528000819
:101D4000D7280008EB28000870477047094910B5EC
:101D5000401E884201D9012010BD074C606103215B
:101D6000081F01F027FC0020A0610720206100204F
:101D700010BD0000FFFFFF0000E000E0F0B50246EC
:101D80002032137F012B1DD00127177702235377B1
:101D900004686368A5680C4EB44204D10F2636056A
:101DA000B3434E6833437026B3430E6889681E43BD
:101DB00080239D4329436660006881605777002037
:101DC0001077F0BD0220F0BD002C014070B5044634
:101DD0002034237F012B0DD0012525770223637743
:101DE0000C2A1AD008DC002A0BD0042A0DD0082AAD
:101DF0001ED10EE0022070BD102A12D0142A17D175
:101E000013E0006800F0A8FF12E0006800F0E2FFB5
:101E10000EE0006801F01EF80AE0006801F05AF8D0
:101E200006E0006801F08CF802E0006801F0B6F806
:101E300065770020207770BD70B5040005D0254679
:101E40002035687F002802D006E0012070BD002008
:101E50002877204600F00AF802206877211D2068C4
:101E600000F03CFF01206877002070BD08B50068D5
:101E70000549884207D10548C26B02210A43C26363
:101E8000C06B0840009008BD0004004000100240F4
:101E900030B5014660310A7F012A18D001220A7745
:101EA00024230246803214461360026813681568C2
:101EB0006D086D00156001225207934300224266AF
:101EC00000680360202020600A77104630BD0220A1
:101ED00030BD7047F8B5054604466035287F0128B7
:101EE0001CD00120287724202646803630602068C8
:101EF000076802685208520002602068826807235F
:101F00005B069A430A438260204601F079F8206814
:101F100007602020306000202877F8BD0220F8BD3F
:101F2000F8B5054604466035287F01281BD00120FE
:101F300028772420264680363060206807680268AB
:101F400052085200026020688268D200D2080A4318
:101F50008260204601F054F820680760202030603D
:101F600000202877F8BD0220F8BD70477047704701
:101F7000F8B503680446D86919689A6806072546C3
:101F8000360F8035002E60D0584EFF27213716407F
:101F90000F40374372D0C70706D0CF0504D50127BD
:101FA0001F62AB683B43AB60830708D5D30706D0FD
:101FB000276802233B62AB6804273B43AB604307BF
:101FC00008D5D30706D0276804233B62AB680227F5
:101FD0003B43AB60030709D520230B40334305D0B7
:101FE000266808233362AE681E43AE60AB68002BE0
:101FF00038D080060AD520200140C0050240114398
:1020000004D0E16E002901D020468847A8682168E5
:102010008968490601D4000729D5204601F0C2F895
:102020002068816849061ED5826840218A43826003
:10203000A06F002817D02E498163A06FFEF71CFC0B
:1020400000280FD0A06F816B0BE0860616D5012704
:1020500020263F070E4017403E430FD0E16E22E09E
:1020600020468847F8BD2046FFF781FFF8BD20468F
:10207000FFF77DFF0020A860F8BDFFE7C60208D586
:10208000560206D50120000518622046FFF76EFFB4
:10209000F2E706060AD501278026FF050E403A40E2
:1020A000164303D0216F0029DAD1E5E742060DD5AA
:1020B0004A060BD519682046402291431960202119
:1020C00029600021216700F0FFF8D5E7020205D55D
:1020D0004A0003D52046FFF748FFCDE7C001CBD526
:1020E0000029C9DA2046FFF7F4FEC5E70100001019
:1020F0009131000870B5040006D0204680300546B6
:102100000068002802D007E0012070BD00217C207B
:102110000155204600F026F8242028602068016838
:10212000490849000160204601F050F80128ECD030
:10213000A06A002802D0204600F092FF2068416883
:102140000922D20291434160206881682A2291438A
:10215000816020680168012211430160204600F07F
:10216000E5FF70BDF0B587B0044614216846FDF761
:10217000F0FF1C4E226805201B4901230224032581
:102180000007B24210D1184A403217689E03374305
:1021900017601268324005924A6B1A434A63496BD2
:1021A00019400591690212E0104EB24217D1CA6B74
:1021B000012676043243CA63CA6B324005924A6BE9
:1021C0001A434A63496BC907C90F05910C21009155
:1021D00002930395019404936946FEF7D7FC07B078
:1021E000F0BD0000003801400010024000440040F3
:1021F000FFB5044685B080300190006815460E4654
:1022000020285FD1002E0AD0002D08D0A168C0017F
:10221000814207D12069002804D1F00702D00120B3
:1022200009B0F0BD204660300290007F012849D0FF
:1022300002980121017701990020886001982121ED
:102240000160FEF743FD274640370390BD82FD82C3
:102250000120A1680003814202D12069002802D038
:102260003546002611E000250FE00022802120469F
:1022700001F022F9002815D1002D15D02168287809
:1022800088626D1CF88A401EF882F88A039B002839
:1022900008980090E9D100224021204601F00CF975
:1022A000002808D00320BBE730882168C005C00D96
:1022B0008862B61CE6E7019820210160029900209F
:1022C0000877ADE70220ABE77047FEE701688A694F
:1022D000D243920701D400228A6200688169C9430F
:1022E000C90703D081690122114381617047000051
:1022F000F8B504460068174680690E46C043C0061C
:102300002DD42546403520688069C043800612D50B
:10231000701CF8D0FEF7DAFCC01BB04201D8002ECA
:10232000F1D1616C20200143616468700020A870C5
:1023300028700120F8BD21681020C861206820267F
:10234000C6612046FFF7C2FF20684168054A114078
:102350004160606C0421084360646E70E6E7002011
:10236000F8BD000000E800FEF8B504461646154822
:102370001D46DAB20090079F0023204600F024F8A3
:102380003A462046069900F080F8002818D12846E1
:10239000F5B2012809D02168300A88623A46204601
:1023A000069900F072F800280AD12068856200972B
:1023B000002240212046069B00F01AF8002800D099
:1023C0000120F8BD00200080F0B50068059C45683C
:1023D000660D8905890D054F120411433E431943CB
:1023E000B54321430D434560F0BD0000FF63FF038B
:1023F000F8B51C4617460E46054609E0601C07D096
:10240000FEF764FC0699401AA0420BD8002C09D0B4
:1024100028688169304688430FD00020B842EDD04B
:102420000020F8BD696C2020014369644035687064
:102430000020A87028700120F8BD0120EEE770B5DB
:1024400016460D4604460FE0324629462046FFF761
:102450004FFF002801D0012070BDFEF737FC801B24
:10246000A84208D8002D06D020688069C0438006A5
:10247000EAD4002070BD616C2020014361644034C7
:1024800060700020A0702070E5E770B516460C461D
:10249000054611E0324621462846FFF729FF00286D
:1024A00001D0012070BD601C06D0FEF70FFC801B20
:1024B000A04208D8002C06D028688069C043800755
:1024C000E8D4002070BD696C202001436964403568
:1024D00068700020A8702870E3E710B5FFF788FE49
:1024E00010BD70B50D460446164611462846FDF748
:1024F00030FE002060602060E6602561A06070BD55
:1025000010B50124074B24039C62610099610649C0
:102510008A689207FCD5087388680006FCD49C6121
:1025200010BD0000000400500038004010B5012428
:10253000074B24039C626100996206498A689207EE
:10254000FCD5087388680006FCD49C6110BD0000AF
:102550000004005000380040F0B587B014216846F0
:10256000FDF7F7FD3548426B04210A434263426B95
:102570000A400592416B012529434163416B294083
:102580000591426B02210A434263406B00220840DE
:10259000059005202A490007FEF792FB0326294FE4
:1025A0003603002231463846FEF78AFB0022C0215E
:1025B0002548FEF785FB0720400300246A4631C208
:1025C00069462148FEF7E2FA20480090052002946F
:1025D0006946019503940007FEF7D8FA029469460C
:1025E0003846009601950394FEF7D0FA2802009031
:1025F0000320039005200195029469460007FEF729
:10260000C5FAC020009002946946019503940E48D3
:10261000FEF7BCFA701000900D4801900520694645
:1026200002950007FEF7B2FA002211460720FEF7D6
:1026300035FD0720FEF726FD07B0F0BD0010024073
:1026400010810000000400500008005010800000BD
:102650000000311010B51348114901601249416062
:10266000002181600161416181610122C161C2601B
:102670000162FEF77BFB002801D0FEF7FAF800218B
:102680000848FEF729FB002801D0FEF7F2F80021E8
:102690000448FEF746FB002801D0FEF7EAF810BD1B
:1026A00000540040D8150020BC7D701010B51148B2
:1026B0000F490160FF21053141600021072281603F
:1026C00012020161C2604161C161012201625202D4
:1026D0004162826181620722C26201630821416313
:1026E000FFF7A9F8002801D072B6FEE710BD000080
:1026F00000300140580E002010B511480F4901600C
:10270000FF21053141600021072281601202016131
:10271000C2604161C1610122016252024162826173
:1027200081620722C262016308214163FFF783F8D7
:10273000002801D072B6FEE710BD0000003800404E
:10274000BC0E002010B58AB00024079408941C2108
:1027500068460994FDF7FDFC1349144812C0046053
:1027600084601349046141600838FFF765FB002865
:1027700001D072B6FEE7079407A90C480994FFF749
:10278000FDFA002801D072B6FEE70094019402948D
:102790000822694605480494FFF718FB002801D079
:1027A00072B6FEE70AB010BD00040040200F002002
:1027B000FFFF000010B5184816490160E1214902E9
:1027C000416000218160C16001618161C16101627C
:1027D0000C22416242618162FFF78CFC002801D02B
:1027E00072B6FEE700210C48FFF79AFB002801D0E3
:1027F00072B6FEE700210848FFF76CFB002801D005
:1028000072B6FEE70448FFF743FB002801D072B61A
:10281000FEE710BD00380140600F002010B50D48E4
:102820000B490160E1210903416000218160C16021
:1028300001618161C16101620C2241624261816278
:10284000FFF758FC002801D072B6FEE710BD00006B
:1028500000440040EC0F0020FEE77047806870479E
:102860008068002801D000207047012070478168EF
:10287000C068814201D101207047002070470000EC
:1028800030B5034600200A4C0FE01A78120250407F
:1028900000225B1C050402D54000604000E04000BF
:1028A000521CD2B280B2082AF4D3491EEDD230BDF8
:1028B0002110000010B5806A01684A6892089200F1
:1028C0004A60016E10221143016601225D210A5403
:1028D000FEF7B0FF10BD10B5806AFFF755F910BDC7
:1028E00010B5806AFFF731FA10BD70B50546846AED
:1028F000FEF7ECF902462868006880061DD42068BF
:1029000041682025A9434160206841688908890001
:1029100041606421204600F043F8002800D025667D
:10292000002120464030C18001214177206E0028DF
:1029300003D02046FEF77EFF70BD2046FFF71AF950
:1029400070BD70B50546846AFEF7C0F90246286876
:102950000068800620D4206841682025A943416092
:102960006421204600F058F8002802D0206E284349
:102970002066206841688908890041600021E1875C
:1029800020464030C18001214177206E002803D0CD
:102990002046FEF74FFF70BD2046FFF7D5F970BD0A
:1029A000F7B504464068FF26053682B01546B042AA
:1029B0000CD10121A068C903884202D04911884284
:1029C00004D12068016840229143016000950022F3
:1029D00080212046039B00F08DF82027002813D18A
:1029E0006068B04216D1A068B902884202D049118D
:1029F00088420FD103210095002249022046039B03
:102A000000F030F8002805D0206E384320660320FF
:102A100005B0F0BD0020FBE7F8B50F460B461546A4
:102A20000092032104460022C90200F01BF8202670
:102A3000002812D13B46002280212046009500F05C
:102A400059F8002809D103213B46002249022046BB
:102A5000009500F007F8002803D0206E3043206670
:102A60000320F8BDF8B51D4616460F46044610E093
:102A7000032149028F4202D1002E00D1007B681C45
:102A800007D0FEF723F90699401AA84208D2002D74
:102A900006D0206881683940B142E9D10020F8BDF4
:102AA00020684168E022914341606068C11FFD39A0
:102AB0000CD10121A068C903884202D04911884283
:102AC00004D1206801684022914301600121A06A7D
:102AD0004903884207D1206802688A43026020685F
:102AE00002680A43026001204034607700202077AA
:102AF0000320F8BDF8B51D4617460E46044609E00A
:102B0000681C07D0FEF7E2F80699401AA8420BD2DB
:102B1000002D09D020688168304688432ED00020DF
:102B2000B842EDD10020F8BD20684168E022914311
:102B300041606068C11FFD390CD10121A068C90343
:102B4000884202D04911884204D12068016840229D
:102B5000914301600121A06A4903884207D120689E
:102B600002688A430260206802680A43026001200A
:102B700040346077002020770320F8BD0120CFE7A4
:102B800070470000F8B5194C174820600025A56073
:102B9000E56065618027A56127611020E5616060BF
:102BA000400220622046FDF703FF002801D0FDF718
:102BB00060FE0F4E0C48B465A6620E4C14302060C7
:102BC00011206060214610200831A1C16561A56116
:102BD000E56120462562FDF7EBFE002801D0FDF7F8
:102BE00048FE7465A662F8BD1C0002407810002003
:102BF000580E0020D410002070B501260446451858
:102C0000F60301F0E3FE204601F0B8FE01F0FCFD02
:102C1000C007FBD1A419AC42F3D370BD70B5144604
:102C20000D46064601F0D2FE22462946304601F006
:102C300073FE01F0E9FDC007FBD170BD10B5FEF7D2
:102C4000CBF910BD30B597B034216846FDF781FA55
:102C500000240D940E940F94182111A81094FDF7E0
:102C600078FA01204002FEF71DFA0225E8010390E0
:102C700000954020059008200A9080030B9007954E
:102C8000000304940C90089509946846FEF7E6FB4F
:102C9000002801D072B6FEE707200D900F940221A4
:102CA0000E9510940DA8FEF7D3FA002801D072B645
:102CB000FEE701201190129411A8FEF719FA0028DE
:102CC00001D072B6FEE717B030BD00000120024906
:102CD000C00688607047000000ED00E070B5026833
:102CE000184C194EA04201D0B04204D113467025B1
:102CF0004A68AB431A43154B154DA04208D0B04269
:102D000006D0144EB04203D0984201D0A84204D15C
:102D100003263602B243CE6832438026B2434E6960
:102D2000324302608A68C2620A688262A04203D0AB
:102D3000984201D0A84201D1096901630121416192
:102D400070BD0000002C0140000400400044014020
:102D50000048014000200040F0B5026A52085200CD
:102D60000262056A43688269164C174E2240920837
:102D70000C6892001443022295438A68134F2A4339
:102D8000B04204D0B84202D0114DA84206D1082565
:102D9000AA43CD681543042295432A46B04204D085
:102DA000B84202D00A4DA84206D103252D02AB43FA
:102DB0004D691D438B692B434360846149684163BE
:102DC0000262F0BD8FFFFEFF002C01400044014075
:102DD00000480140F0B5026A10239A430262046A77
:102DE00043688269174D184E2A4003252D02AA43D5
:102DF0000D682D021543202294438A681201224354
:102E0000B04207D11446CA688027BC43120122434E
:102E10004024A243B04205D00C4CA04202D00C4C3E
:102E2000A04208D10324A402A3434C69A4001C437C
:102E30008B699B002343436085614968816302621B
:102E4000F0BD0000FF8FFFFE002C01400044014058
:102E500000480140F0B5026AFF2301339A43026241
:102E6000046A4368C269174D174E2A4092080D68DC
:102E7000920015430122520294438A6812022243AF
:102E8000B04207D11446CA68C714BC431202224399
:102E90000415A243B04205D00C4CA04202D00C4C09
:102EA000A04208D103242403A3434C6924011C43FA
:102EB0008B691B0123434360C5614968C16302629A
:102EC000F0BD00008FFFFEFF002C014000440140D8
:102ED0000048014070B5026A01231B039A43026255
:102EE000046A4268C369124D2B4003252D02AB438F
:102EF0000D682D021D4301235B039C438B681E0359
:102F00000C4B2643984205D00B4B984202D00B4BFA
:102F1000984206D101241346A4034A69A3439201AF
:102F20001A434260C56149680164066270BD0000D1
:102F3000FF8FFFFE002C014000440140004801408B
:102F400070B5026A01263604B2430262036A42681F
:102F5000446D0E4D2C400D6825437400A3430C892D
:102F600024041C430A4B984205D00A4B984202D0D5
:102F7000094B984204D113464A69B34312021A43DB
:102F80004260456549688165046270BD8FFFFEFF40
:102F9000002C0140004401400048014070B5026A25
:102FA00001231B059A430262036A4268446D104D77
:102FB0002C400D682D02254301246405A3430C8990
:102FC00024051C430B4B984205D00B4B984202D072
:102FD0000A4B984206D101261346B6044A69B34308
:102FE00092021A43426045654968C165046270BD3A
:102FF000FF8FFFFE002C01400044014000480140CB
:10300000F0B513A106C985B00091019212A106C9BD
:10301000039202910446416E4034002915D00068A5
:103020008168806809014D0F400F02AE315C6F4628
:10303000385CC000FDF75CF86085785D715DC000AC
:10304000FDF756F8208505B0F0BD01206085F9E751
:103050000101010307010000080402040801010145
:1030600010B5018DC90707D001684A6801235B04C8
:103070009A43C36A1A434A60018D890707D50168DC
:103080004A6801231B049A43036B1A434A60018D6B
:10309000490707D501684A6801239B049A43436B9B
:1030A0001A434A60018D090707D501684A68012360
:1030B000DB039A43836B1A434A60018DC90607D527
:1030C00001688A6801231B039A43C36B1A438A6011
:1030D000018D890607D501688A6801235B039A433D
:1030E000036C1A438A60018D490612D501684B684A
:1030F00001221205446C934323434B60416C91427F
:1031000007D101684A6803235B059A43836C1A431D
:103110004A60018D090607D501684A680123DB046E
:10312000C06C9A4302434A6010BD0000FEB50546DC
:10313000002680350446AE60FDF7C8FD019020688A
:103140000068124F000709D50121009700224905A8
:103150002046019B00F0B0F900280DD120680068DE
:1031600040070BD501210097002289052046019BCD
:1031700000F0A2F9002801D00320FEBD2020286025
:103180006860603426770020FEBD0000FFFFFF016D
:1031900010B5806A002201464031CA83CA82FEF718
:1031A000E6FE10BD01680A68FF2321339A430A60D6
:1031B00001688A68044B1A408A60202284210A50E0
:1031C0000021C16670470000FEFFFFEFF8B504461E
:1031D0002269A168E3691143626900201A4311431F
:1031E000626E05460A4321680B68AC4E33401343B8
:1031F0000B6021684A6803231B039A43E3681A4360
:103200004A60226AA1690A4321688B68A44E334050
:1032100013438B602168CA6A636A120912011A4358
:10322000CA62A04A216891420FD19F494969890722
:10323000890F10D0012904D002290CD0032909D10B
:1032400001E0042107E0082105E0984A914201D1FC
:10325000002100E010210122D203E369D611944F2E
:1032600093426ED1002913D0022942D004297ED086
:1032700008297FD0012501461039B94270D88C4900
:10328000491C01400007420F20680A43C260FAE06F
:10329000FEF78AF86DE0012815D0022815D0032822
:1032A00015D0042815D0052815D0062815D00728D4
:1032B00015D0082815D0092815D00A2815D00B28B4
:1032C00014D0012612E0022610E004260EE00626A5
:1032D0000CE008260AE00A2608E00C2606E0102684
:1032E00004E0202602E0402600E080263146104619
:1032F0001BE0606A002815D0012820D0022823D0C6
:10330000032823D0042823D0052823D0062823D03F
:10331000072823D0082824D0092824D00A2824D01C
:103320000B2800D0012631466248FCF7E1FE6168B7
:1033300040004A088018FCF7DBFE80B29BE70226BB
:10334000F1E71BE013E015E00426ECE70626EAE7C8
:103350000826E8E70A26E6E70C26E4E71026E2E777
:1033600084E02026DFE74026DDE78026DBE7FEF766
:103370002FF80246606A0028A3D08CE700290DD000
:1033800002293CD0042976D0082977D001250146AE
:103390001039B94276D82168C86074E0FEF704F8A5
:1033A0006BE0012815D0022815D0032815D0042879
:1033B00015D0052815D0062815D0072815D00828BF
:1033C00015D0092815D00A2815D00B2814D00126AD
:1033D00012E0022610E004260EE006260CE0082685
:1033E0000AE00A2608E00C2606E0102604E0202663
:1033F00002E0402600E08026314610461BE0606A6D
:10340000002815D001281FD002281FD003281FD064
:1034100004281FD005281FD006281FD007281FD03A
:1034200008281FD0092822D00A2822D00B2800D033
:10343000012631461F48FCF75BFE61684A08801888
:10344000FCF756FE80B2A2E70226F2E70426F0E778
:103450000626EEE70826ECE70A26EAE70C26E8E768
:103460001026E6E72026E4E705E007E00AE040262C
:10347000DFE78026DDE7FDF7ABFF0246606A002844
:10348000A5D08EE7012520460121403041850185E8
:103490000020E06620672846F8BD0000F369FFCFF2
:1034A000FFF4FF110038014040100240004400408A
:1034B000EFFF00000024F400FFB581B01E46174660
:1034C00004460A9D08E0681C06D0FDF7FFFB801B40
:1034D000A8420CD8002D0AD02068C1690298884300
:1034E0001AD00020B842EED0002005B0F0BD206810
:1034F0000168FF22A1329143016020688168490878
:103500004900816020212046803001604160002018
:10351000603420770320E8E70120E3E710B5094C89
:1035200020680168890609D5406AC1B20648FDF7DE
:1035300084F9206801682022114301600148FEF7E8
:1035400017FD10BDEC0F0020B01300200FB410B514
:1035500003A9044B044A029800F018F910BC08BCF7
:1035600004B01847013F0008540E00202021020C2F
:1035700001D010211046020A01D010460839020974
:1035800001D01046091F820801D01046891E42084A
:1035900001D0881E7047081A704730B47446641E04
:1035A0002578641CAB4200D21D46635D5B00E318C6
:1035B00030BC18478307FF22DB0E9A408907090EAB
:1035C0009940002808DB830809489B001818036805
:1035D00093430B43036070470007000F08388308CC
:1035E00004489B001818C36993430B43C361704799
:1035F00000E400E000ED00E002E008C8121F08C18E
:10360000002AFAD170477047002001E001C1121F63
:10361000002AFBD170470000F0B51FB486B00998AE
:10362000089A030D0021024314D05148514A18183A
:10363000504305141198012810981AD0281A401CDC
:1036400000264D4F4D49009601910490002812DA52
:10365000444211E01198012449A3012801D1109896
:10366000C1430698119A84600360C26041600BB048
:10367000F0BD4042E4E70446210500203F4A001C1B
:1036800051410391029012E0E00707D032463B46D9
:1036900001990098FCF754FE0191009032463B4698
:1036A00010461946FCF74CFE06460F466410002CE7
:1036B000EAD10498039B0028029A0999089806DA2F
:1036C000FCF73EFE019B009AFCF73AFE05E0FCF792
:1036D0009FFE019B009AFCF79BFE04460E460022CB
:1036E000284BFCF72DFF03D80020C043014607E01C
:1036F0000022254B20463146FCF770FDFCF700FF09
:10370000102409E0002C0ADB0A220023FCF736FD16
:10371000079B30321A55641E02460A43F2D1112229
:10372000641C079B121B1C19119B012B03D0012346
:1037300008430ED10AE0084304D011201090002065
:10374000119077E71098151A6D1E0BE010988242C1
:1037500002DD00236D1C03E0824201DA00236D1EAE
:10376000002BEED0069811998260C16030C07EE7D0
:1037700001FCFFFF104D0000000014400000F03F6E
:10378000300000000000F0430000E03FFFB597B0BC
:103790000646002518E2252877D100242746FD4952
:1037A000049400E00443761C32780120203A9040D3
:1037B0000842F7D130782A280ED00222307801460C
:1037C0003039092916D804990A2359433039401849
:1037D0001443761C0490F1E7189802C804911890DD
:1037E000002904DA012040030443484204900220E7
:1037F0000443761C30782E2814D1042004437078BA
:10380000761C2A2809D11898761C80C8189009E0DF
:103810000A214F43303FC719761C307801463039B2
:103820000929F5D930786C2810D006DC4C281AD03C
:1038300068280ED06A2817D104E0742813D07A289B
:1038400012D110E00120400504430CE001210905DC
:1038500001E0032109050C437178814203D1012065
:1038600000052418761C761C3078119066280BD041
:1038700013DC58287DD009DC00287BD04528F6D001
:103880004628F4D047281AD1A5E118E0632835D09E
:10389000642870D0652812D19DE170286CD008DCB6
:1038A0006728F1D069287BD06E280DD06F2806D10B
:1038B000BAE073282ED0752871D0782859D01A9A7A
:1038C000199990476D1C7EE16002400F022809D0D3
:1038D00003280DD00428189801680DD00D60001D34
:1038E000189070E11898EA1701680D604A60F6E7D1
:1038F000189801680D80F2E70D70F0E718986A4695
:1039000001781172001D18900020507202A80090DA
:10391000012005E0189802C8189000200091C043CB
:1039200061070DD5002101E00199491C0191B942BF
:1039300012DA8142F8DB009A515C0029F4D10BE0E5
:10394000002101E00199491C01918142FADB019AB1
:103950000099895C0029F5D1019904981A9B471AAE
:1039600021463846199A00F097FA019940194518EE
:103970000BE04FE02CE113E04EE000980099007856
:10398000491C00911A9A199990470198401E01907C
:10399000401CF2D1214638461A9B199A10E137E0B3
:1039A0000A200021009001916002410F022907D0F6
:1039B000189A01CA1892C2179446032908D00AE03F
:1039C0001898C01DC108C90005C91891944607E0A0
:1039D00000B2C2179446042902D140B2C1178C46E6
:1039E00000226146944506DA0A4600214042914190
:1039F0008C462D2102E0210504D52B216A46117346
:103A0000012103E0E10701D02021F7E7029155E011
:103A10000A200AE0102008E0102000900021042075
:103A200004430191082703E0082000210191009040
:103A30006002410F022907D0189A01CA1892002289
:103A40009446032908D008E01898C01DC108C90091
:103A500005C91891944603E080B2042900D1C0B290
:103A600000210291210729D51199702906D0009AC9
:103A70001021019B4A401A4305D00EE040216A46BE
:103A80001173012108E06146014306D030216A46E6
:103A900011731199517302210291009A0821019B1F
:103AA0004A401A430AD16146014301D1610705D555
:103AB00030216A46117301217F1E02911199582904
:103AC00004D035A10E910DA90D910DE037A1F9E7B4
:103AD0006146019B009AFCF751FB0E9B8C469B5C58
:103AE0000D9A521E0D92137061460143F0D10D984C
:103AF00005A9081A20300190600703D501200004B1
:103B0000844300E001270198874201DD381A00E074
:103B10000020019900904118029809180498401A51
:103B20000490E00306D421461A9B199A049800F0E9
:103B3000B3F94519002706E003A81A9AC05D199940
:103B400090476D1C7F1C02988742F5DBE0030CD583
:103B500021461A9B199A049800F09EF9451904E031
:103B60001A9A3020199990476D1C0099481E0090B0
:103B70000029F5DC08E00D980D990078491C0D919D
:103B80001A9A199990476D1C0199481E01900029B5
:103B9000F1DC63E109280100303132333435363746
:103BA0003839616263646566000000003031323389
:103BB0003435363738394142434445460000000029
:103BC00000F05AF94519761C3078002800D0E2E55B
:103BD00028461BB0F0BD600700D406271898C01D0A
:103BE000C108C90048680A680831C30FDB0718918B
:103BF000190001D09CA108E0210501D59BA104E09A
:103C0000E10701D09AA100E09AA1430011985B0856
:103C1000109165280CD006DC452809D046281DD017
:103C2000472841D141E0662818D067283CD13CE0C4
:103C30000021112F01DB112000E0781C0191009080
:103C400008A911A8FFF7E8FC139905910021119A22
:103C500015927F1C12980197009150E00120C00737
:103C600003900120019008A9009711A8FFF7D4FC48
:103C7000139A149905920022119B009212981593A1
:103C8000059A0192002901D0104602E0791C4018E3
:103C90000190381A01D5019804E04042401E00907E
:103CA000781C0190C01B029043E0012F00DA01272D
:103CB0000021112F01DD112000E038460191009014
:103CC00008A911A8FFF7A8FC13990591119A0021E2
:103CD000129815920091019721070CD40599B942C9
:103CE00001DB019900E00191012904DD159A491ECB
:103CF000515C302906D0B84201DA011D05DA0121F4
:103D0000029115E00199491EEDE7002805DC0099B4
:103D1000411800910199091A03E0019A411C91424E
:103D200000DD01910099401A401C02900120C0075B
:103D30000390200706D402990198814202DB0020FB
:103D4000C043029000206946C87707AF012103985D
:103D50000337C907884224D0022011902B201290EB
:103D6000039800280CDA404203902D20129007E0BF
:103D70000A210398FCF7BCF930317F1E039039709B
:103D80001199481E11900029F2DC03980028EFD108
:103D9000791E129808703078202108404530BF1EE7
:103DA000387006A8C01BC01D03901098007800282A
:103DB00000D00120019941180298C01709180398F2
:103DC00009180498401A401E0490E00306D42146C6
:103DD0001A9B199A049800F05FF84519109800781A
:103DE000002803D01A9A199990476D1CE00324D536
:103DF00021461A9B199A049800F04EF845191CE0C8
:103E00000098002807DB00990598884203DD159883
:103E1000405C199901E0199930201A9A904700984E
:103E20006D1C401C00900298401E0290002804D196
:103E30001A9A2E20199990476D1C0199481E0190DD
:103E40000029DDDC05E038781A9A7F1C1999904723
:103E50006D1C0399481E03900029F4DC21461A9B2F
:103E6000199A0498ACE600002D0000002B00000019
:103E70002000000000000000F8B5044600251E46A2
:103E80001746880404D405E039462020B0476D1C4D
:103E9000641EF9D52846F8BDFFB50446002581B05B
:103EA0001E46C80301D5302700E02027880404D52A
:103EB00005E038460399B0476D1C641EF9D52846C5
:103EC00005B0F0BD7047704710B503A0FFF73EFB8B
:103ED00000F0CCFD012010BD696E69742065766527
:103EE0006E740A000120704710B50448006801682C
:103EF000402211430160FEF745FE10BD580E002020
:103F000038B50446684604700023DB430122694645
:103F10000248FEF76DF9204638BD0000EC0F002086
:103F2000704710B5FEF768FE10BD0000014800782C
:103F300070470000180E002010B5FEF76FFE10BD90
:103F4000024801780029FCD170470000180E0020BB
:103F5000074A084910B58818FEF7C3FA1C20FDF778
:103F600091F805480068016820221143016010BDE6
:103F7000120200009E110020EC0F002010B504007A
:103F800003D02168002900D08847204610BD0000DA
:103F900008B5FDF729F8FEF755FEFEF7DDFA1348E0
:103FA000816B012211438163806B104000220090DD
:103FB00011460920FDF772F80920FDF763F8002289
:103FC00011460A20FDF76AF80A20FDF75BF8FEF7B4
:103FD0006DFBFEF7B7FBFEF7EDFBFEF71FFCFEF7F0
:103FE0008BFB00F0CBFD00F021FEFCE7001002404F
:103FF00038B5044605480069009009F01DFD8000B1
:10400000694609582046884738BD00005C520008C0
:1040100038B5054606480C468068009009F00CFD4E
:10402000800069460A5821462846904738BD00005E
:104030005C52000808B5044980004968009169464F
:104040000858804708BD00005C52000838B5054696
:1040500006480C46C068009009F0EEFC80006946F6
:104060000A5821462846904738BD00005C52000897
:1040700038B5054606480C460068009009F0DCFC9F
:10408000800069460A5821462846904738BD0000FE
:104090005C52000838B5204CA1796079814223D068
:1040A0000107090F1DA0FFF751FA6079A071000701
:1040B000000F0125042805D0072816D0082814D0A1
:1040C0000B2811D1684605700421417018A0FFF734
:1040D0003DFAE5702079002802D0E179002917D057
:1040E0002571684600F0F0FC38BD68460570052172
:1040F00041700FA0FFF72AFA2571E078002802D05E
:10410000E179002901D0E570EBE7401EE070E8E7B7
:10411000401E2071E5E70000400E0020656E636FD1
:1041200064652073746174733A25780A0000000096
:1041300070726F6320656E636F6465206B65793A9A
:1041400025640D0A00000000F8B5FFF7A3FF00F09A
:104150003BFB294D0446A878A04221D0AC702146F3
:1041600026A0FFF7F3F9A8780026FF280CD02878BE
:1041700000283FD16C70012028706A46107054707E
:1041800021462E8121A030E02E70684606706978A5
:10419000417023A0FFF7DAF9FF2068702E8126E036
:1041A0002878012826D12889401C80B228816428DB
:1041B00015D00146FF392D390AD00146FF39F539AE
:1041C00018D105206A4610706978517019A00CE06A
:1041D00004206A461070697851701CA005E0032025
:1041E0006A461070697851701EA0FFF7AFF96846F3
:1041F00000F06AFCF8BD0000400E00207363616EA1
:10420000206B65793A25780D0A00000070726F63A3
:10421000206B657920646F776E3A25640D0A000083
:1042200070726F63206B65792075703A25640D0A92
:104230000000000070726F63206B6579206B65650C
:10424000702035733A25640D0A00000070726F63A8
:10425000206B6579206B6565702033733A25640D9A
:104260000A00000070726F63206B6579206B6565D2
:10427000702031733A25640D0A00000010B5012842
:1042800001D100F001F810BD10B51B4C1A481438CC
:10429000FEF7E4FA04282EDB1749012208461438F9
:1042A000FCF76AFA2178AA2901D014A009E0124982
:1042B000012208461438FCF75FFA2178552903D00B
:1042C00012A0FFF743F9E1E70B490422084614382E
:1042D000FCF752FA084911483839896B0160208887
:1042E00040BA002804D00128D0D100F037F9CDE73A
:1042F00000F016F8CAE710BDC41300206E6F7420DA
:1043000068656164303A2578200A00006E6F742079
:1043100068656164313A2578200A00008C1100201C
:10432000F0B581A087B00068009080A0006802907E
:104330007FA000687F490190084600260E221438AD
:10434000FCF71AFA7B4DA889294644BA0EC97A4867
:104350000EC010211038FEF793FA80B2844203D0C9
:104360000123032201A9D6E072480830FBF7FCFEC6
:10437000704900BA000AC97A0002084300240146C5
:10438000039027462046FFF7CCFD6A481438FEF715
:1043900065FA6849024608461438FCF7EDF96749A2
:1043A0006448FBF7D6FE0123032269466448FEF702
:1043B00094F8644805907F1C6348BFB2874204D9D3
:1043C00062A0FFF7C3F807B0F0BD5A481438FEF7F3
:1043D00045FA021E72DD03980027A118814203D21C
:1043E0004120C000824269DB4120C000824239DDA9
:1043F0005049024608461438FCF7BEF94D4DA888CE
:1044000041BA6818C27980791202024352BAA81CD4
:10441000091D0492FEF734FA049A80B2824209D050
:10442000761C032E38D8A87869464872E8780026AA
:1044300088723FE0FF220132A91D2046FFF77CFD74
:10444000FF220132A0180599FFF776FDA87869468A
:104450004870E878FF34887001230322FF3438481D
:1044600002344CE0334908461438FCF785F9314AE8
:10447000908845BA5019C17983790802184341BA26
:104480000491291D901CFEF7FBF9049980B281422A
:1044900015D0761C032E06D926486A4681785171BC
:1044A000C07890715CE723486A4681785172C07881
:1044B000002690720123032202A91FE02FE0FF22B1
:1044C000013295420AD91B492046891DFFF734FD68
:1044D000EA1FF93AE01DF930059903E015492A462B
:1044E000891D2046FFF728FD12486A4681785170E1
:1044F000C078641990700123032269461048FDF7C3
:10450000ECFF0398844200D255E7FF2069464870CB
:104510000123887003220A48FDF7DFFF53E70120DB
:10452000FCF7DEFA47E70000A2000000E000000010
:10453000E1000000C41300209011002012020000CE
:10454000EC0F0020CA140020B80B000075706461E5
:1045500074652074696D656F75740A00F8B52F492C
:1045600000260846344604221438FCF705F92B4887
:10457000FBF7FAFD00BA070A28483F02C078074354
:10458000394627A0FEF7E2FF39460020FFF7C9FCB5
:1045900029A0FEF7DBFF2E48761C864201D92DA00C
:1045A00034E01E481438FEF759F9051E31DD601954
:1045B00000260090B84201D2FF2D2ADD294629A00D
:1045C000FEF7C4FFFF2D12DD1449FF250135084613
:1045D0002A461438FCF7D0F82A4610492046FFF73F
:1045E000ABFC6419214621A0FEF7B0FF0BE00B499C
:1045F0002A4608461438FCF7BFF82A4607492046E1
:10460000FFF79AFC009CBC42C5D31AA0FEF79EFFA0
:10461000F8BD0120FCF764FABDE70000C4130020D8
:1046200073746172742073696D706C657570646108
:1046300074653A2564200A00666F726D61742066A5
:104640006C617368207375636573730A0000000002
:10465000B80B00007570646174652074696D656FD6
:1046600075740A005B25645D000000002D25640A56
:104670000000000075706461746520737563657374
:10468000732121210A000000F0B5102705231B0724
:104690009F6200BF00BF0323314D2B73314B040CCD
:1046A0001E6834731C68A668B607FCD5060A267314
:1046B0001C68A668B607FCD520730026002A21D006
:1046C000012A18D0022A0FD0032A06D0186884685D
:1046D000A407FCD506731868007B18688468A407D3
:1046E000FCD506731868007B18688468A407FCD59D
:1046F00006731868007B18688468A407FCD50673E5
:104700001868007B012A04D0022A04D0032A06D1AB
:1047100003E01868007B1868007B1868007B8C1821
:10472000241F06E0A8688007FCD52E73287B08703C
:10473000491CA142F6D3186883681B06FCD4042ADE
:1047400000D30422002003E02B7B0B70401C491C8B
:104750009042F9DB05200007876103480670F0BD31
:1047600000300140580E0020180E002070B51023B4
:1047700005242407A362124C01232370114C032348
:1047800025682B7323689D68AD07FCD5050C1D7348
:1047900023689D68AD07FCD5050A1D7323689D68D5
:1047A000AD07FCD51873206883681B06FCD4037B17
:1047B000037B037B007B92B20248FDF73BF970BD9F
:1047C000180E0020580E002000B585B01421684650
:1047D000FBF7BFFC684600F031F8002808DB0398BF
:1047E000032808D0022808D0012808D0042808D0BF
:1047F000FF2005B000BD0020FBE70120F9E7022003
:10480000F7E70320F5E7000010B5102205231B078A
:104810009A62094C0520216808732068816889071D
:10482000FCD500210173206881680906FCD49A61D7
:10483000017B007B10BD0000580E0020F0B587B052
:10484000002704460A21092303A805970193029132
:1048500000903A46039704973D4601232A212548B4
:10486000FCF7DEFA060006D0014623A0FEF76EFE36
:10487000304607B0F0BD6846C07B80092ED01421B9
:104880002046FBF766FC6846807B03AA0007000F02
:104890002074A7726846407BE06006206843801859
:1048A000417909090F2922D2A17A491CA172C17844
:1048B00009070B0D01790B4369006352437986792F
:1048C0001B071B0D334309194B80C0786119800900
:1048D0000871002805D0022803D005E00020C0435D
:1048E000C7E7207C002802D06D1C012DD5DB0020FD
:1048F000BFE70000D81500205265616420746F7511
:10490000636864617461206661696C65642C2072FF
:1049100065743A2025640A00F0B5102305242407A5
:10492000A362154D02262F683E732E68B768BF0735
:10493000FCD5070C37732E68B768BF07FCD5070A8C
:1049400037732E68B768BF07FCD5307306E08668FA
:10495000B607FCD50E780673491C521E2868002A3B
:10496000F5D181680906FCD4A36100E0017B816870
:10497000C907FBD1F0BD0000580E002030B5102251
:1049800005231B079A62104CD821256829732168DA
:104990000D7B8D68AD07FCD5050C0D7321688D6806
:1049A000AD07FCD5050A0D7321688D68AD07FCD5F0
:1049B0000873206881680906FCD49A61017B017B39
:1049C000017B007B30BD0000580E002010B5102286
:1049D00005231B079A6205480621046821730068B5
:1049E00081680906FCD49A61007B10BD580E002036
:1049F0001CB5FCF76BF908490A68821A0A2A0AD919
:104A000008604868401C48600449096801900091AA
:104A1000684609F063FB1CBD100E0020E051000841
:104A20007047000010B507A0FEF790FDFCF74EF9A7
:104A3000084C206008A0FEF789FD0020606001207E
:104A400010BD000074696D65725F696E6974200A3B
:104A500000000000100E002074696D65725F696EC1
:104A6000697420323232320A0000000010B5FDF7BE
:104A7000F1FDFBF7A1FE074C002201212046FCF7C7
:104A80001FF90120FCF72CF8012211462046FCF703
:104A900017F910BD000400507047704710B503208F
:104AA00008F0AEFF054C064A2168C900891849681C
:104AB000097809F0D6FF0020606010BD4C0E002080
:104AC000885200087047704770B5017801292BD1D2
:104AD000234C427820680026C100224D1300FEF7C7
:104AE0005CFD0623040B23243723401E206001D5E0
:104AF00004202060014605E0401C2060042800DD01
:104B000026602168C80040194068027816A0FEF7A8
:104B10001DFD032008F074FF2168C9004919496888
:104B2000097809F09EFF666070BD6068401C606097
:104B3000695C814200DC6660032008F061FF216847
:104B40006268C90049194968895C09F08AFF70BD2B
:104B50006068401E6060EFD5685C401E6060EBE7F7
:104B60004C0E00208852000873657420626720692B
:104B70006D672025643A25640A0000003EB51D4893
:104B8000FFF7FCF91C4C20621CA0FEF7DFFC1FA005
:104B9000FEF7DCFCFCF79AF86060FCF797F8A06081
:104BA000FCF794F8E060FCF791F82061FCF78EF8D0
:104BB0006061FCF78BF8A061FCF788F8206015486D
:104BC0000068804714486B4607C807C31249114A5A
:104BD0003C39684608F036FF00280AD0002008F06B
:104BE000A7FF002240210D48FCF76AF80CA0FEF751
:104BF000ADFC3EBD005200081C0E00206C6F6164CD
:104C00002075617274200D0A000000006C6564203C
:104C10006F6E0A00E851000850520008000800506A
:104C20006F70656E207061676520300010B508F008
:104C30008FFFFCF74BF8214CE0616168411A0A29AB
:104C400006D96060206A0022036911460120984756
:104C50002168E069411A052902D92060FFF774FA3A
:104C6000A168E069411A322906D9A060206A0022B1
:104C70000369114604209847E168E069411A6429F4
:104C800006D3E060206A002203691146032098479A
:104C90002169E069FF22411AF532914200D3206177
:104CA00061697D22411AD200914200D36061A169FD
:104CB000034A411A914200D3A06110BD1C0E00208E
:104CC000C02709007047704770B5FE48006801684A
:104CD000402211430160FC4C012240212046FBF799
:104CE000EFFFFF250526013536070022294630460D
:104CF000FBF7E6FF002280212046FBF7E1FF1420AE
:104D0000FBF7EEFE012229463046FBF7D9FF1420BF
:104D1000FBF7E6FEEF20FDF709FCEB20FDF706FCB4
:104D20001420FDF7EDFBFE20FDF700FCEF20FDF762
:104D3000FDFBEB20FDF7FAFB1420FDF7E1FB8420DF
:104D4000FDF7F4FB4020FDF7DBFB8520FDF7EEFBD4
:104D5000FF20FDF7D5FB8620FDF7E8FBFF20FDF7E0
:104D6000CFFB8720FDF7E2FBFF20FDF7C9FB882082
:104D7000FDF7DCFB0A20FDF7C3FB8920FDF7D6FB1E
:104D80002120FDF7BDFB8A20FDF7D0FB0020FDF7B9
:104D9000B7FB8B20FDF7CAFB8020FDF7B1FB8C2011
:104DA000FDF7C4FB0120FDF7ABFB8D20FDF7BEFB3B
:104DB0000120FDF7A5FB8E20FDF7B8FBFF20FDF7D6
:104DC0009FFB8F20FDF7B2FBFF20FDF799FBB6207C
:104DD000FDF7ACFB0020FDF793FB2020FDF790FBD7
:104DE0003620FDF7A3FB0820FDF78AFB3A20FDF7EC
:104DF0009DFB0520FDF784FB9020FDF797FB082025
:104E0000FDF77EFB0820FDF77BFB0820FDF778FB14
:104E10000820FDF775FBBD20FDF788FB0620FDF798
:104E20006FFBBC20FDF782FB0020FDF769FBFF2034
:104E3000FDF77CFB6020FDF763FB0120FDF760FBC5
:104E40000420FDF75DFBC320FDF770FB1320FDF789
:104E500057FBC420FDF76AFB1320FDF751FBC92067
:104E6000FDF764FB2220FDF74BFBBE20FDF75EFB48
:104E70001120FDF745FBE120FDF758FB1020FDF761
:104E80003FFB0E20FDF73CFBDF20FDF74FFB212011
:104E9000FDF736FB0C20FDF733FB0220FDF730FB5E
:104EA000F020FDF743FB4520FDF72AFB0920FDF725
:104EB00027FB0820FDF724FB0820FDF721FB262017
:104EC000FDF71EFB2A20FDF71BFBF120FDF72EFB53
:104ED0004320FDF715FB7020FDF712FB7220FDF754
:104EE0000FFB3620FDF70CFB3720FDF709FB6F2089
:104EF000FDF706FBF220FDF719FB4520FDF700FB4F
:104F00000920FDF7FDFA0820FDF7FAFA0820FDF761
:104F1000F7FA2620FDF7F4FA2A20FDF7F1FAF3203C
:104F2000FDF704FB4320FDF7EBFA7020FDF7E8FAEC
:104F30007220FDF7E5FA3620FDF7E2FA3720FDF79B
:104F4000DFFA6F20FDF7DCFAED20FDF7EFFA1B200A
:104F5000FDF7D6FA0B20FDF7D3FAAE20FDF7E6FAFF
:104F60007720FDF7CDFACD20FDF7E0FA6320FDF7BD
:104F7000C7FA7020FDF7DAFA0720FDF7C1FA07201B
:104F8000FDF7BEFA0420FDF7BBFA0E20FDF7B8FAD4
:104F90000F20FDF7B5FA0920FDF7B2FA0720FDF75B
:104FA000AFFA0820FDF7ACFA0320FDF7A9FAE820D4
:104FB000FDF7BCFA3420FDF7A3FA6220FDF7B6FA3C
:104FC0001820FDF79DFA0D20FDF79AFA7120FDF7E4
:104FD00097FAED20FDF794FA7020FDF791FA702012
:104FE000FDF78EFA1820FDF78BFA0F20FDF788FAEF
:104FF0007120FDF785FAEF20FDF782FA7020FDF7AA
:105000007FFA7020FDF77CFA6320FDF78FFA1820F5
:10501000FDF776FA1120FDF773FA7120FDF770FAAB
:10502000F120FDF76DFA7020FDF76AFA7020FDF7A8
:1050300067FA1820FDF764FA1320FDF761FA712072
:10504000FDF75EFAF320FDF75BFA7020FDF758FAE2
:105050007020FDF755FA6420FDF768FA2820FDF767
:105060004FFA2920FDF74CFAF120FDF749FA01200B
:10507000FDF746FAF120FDF743FA0020FDF740FA6C
:105080000720FDF73DFA6620FDF750FA3C20FDF7BA
:1050900037FA0020FDF734FACD20FDF731FA67200A
:1050A000FDF72EFA4520FDF72BFA4520FDF728FAEB
:1050B0001020FDF725FA0020FDF722FA0020FDF769
:1050C0001FFA03E0BC0E0020000800500020FDF78E
:1050D00017FA6720FDF72AFA0020FDF711FA3C20A5
:1050E000FDF70EFA0020FDF70BFA0020FDF708FA95
:1050F0000020FDF705FA0120FDF702FA5420FDF724
:10510000FFF91020FDF7FCF93220FDF7F9F998209E
:10511000FDF7F6F97420FDF709FA1020FDF7F0F914
:105120008520FDF7EDF98020FDF7EAF90020FDF775
:10513000E7F90020FDF7E4F94E20FDF7E1F9002042
:10514000FDF7DEF99820FDF7F1F93E20FDF7D8F9DB
:105150000720FDF7D5F93520FDF7E8F92120FDF707
:10516000E5F91120FDF7E2F97820FBF7B9FC2920D9
:10517000FDF7DCF91420FBF7B3FC012070BD000043
:10518000000000000000000000000000000000001F
:10519000000000000000000000000000000000000F
:1051A00001000000020000000300000004000000F5
:1051B00006000000070000000800000009000000D1
:1051C00000000000000000000000000000000000DF
:1051D00001000000020000000300000004000000C5
:1051E000040A000000000000E93E0008213F00081A
:1051F000894600086D470008413F00082D3F000820
:10520000513F0008C53E00080000000000000000FB
:105210007D420008C94C0008254A0008C93E000824
:10522000C54C0008214A0008C73E0008E53E0008BA
:10523000F1490008C74C00087140000835400008DB
:10524000114000084D400008F13F00084D350008AE
:10525000F000F0001000000000000000C74A000845
:105260009D4A00089B4A0008C54A0008994A000860
:10527000000102030405060708090A0B0C0D0E0FB6
:1052800010111213141516170400000084520008A0
:10529000050000007052000805000000755200086B
:1052A000050000007A520008050000007F52000847
:1052B000D0520008000E002058000000F835000809
:1052C00028530008580E0020D00B000008360008B4
:1052D0000400000001000000000000000024F400B1
:1052E00000000000000000000000000000000000BE
:1052F00000000000000000000000000000000000AE
:10530000000000000000000000000000000000009D
:1053100000FF00010100000000000000000000008C
:08532000000000000000000085
:04000005080000C12E
:00000001FF
